:020000040000FA
:060000000BEF3EF01200C0
:020006001200E6
:06000800D9EF3CF01200EC
:02000E0000FFF1
:04001000FFFFFF00EF
:020014000000EA
:060018002FEF3DF0120085
:02001E000300DD
:100020005C7C0000000E0000A8000000140000002E
:10003000F00E0000020000000E000000A900000009
:0400400006000000B6
:0C004400D9CFE6FFE1CFD9FF0E0EE12678
:10005000DF6A020EDF5C1AE2DF50160DF3CFE9FF14
:10006000F4CFEAFFA80EE9260E0EEA22140EE926C6
:10007000000EEA22EF50010B01E108D0DF0404E199
:10008000F36AF46A31EF05F0DF2AE3D7D9500B0F9A
:10009000E66E000EDA20E66ED950030FE66E000E13
:1000A000DA20E66EDF50160DF3CFE9FFF4CFEAFF5A
:1000B000A80EE9260E0EEA22040EE926000EEA2218
:1000C000E9CF18F0EACF19F018C0E6FF19C0E6FF33
:1000D000DF50160DF3CFE9FFF4CFEAFFA80EE926B3
:1000E0000E0EEA22E9CF1AF0EACF1BF01AC0E6FFA3
:1000F0001BC0E6FFD950010FE66E000EDA20E66E57
:10010000DF50160DF3CFE9FFF4CFEAFFA80EE92682
:100110000E0EEA22100EE926000EEA22E9CF1CF0AC
:10012000EACF1DF01CC0E6FF1DC0E6FFFD0EDBCFD1
:10013000E6FFFE0EDBCFE6FF0EEC1AF01E6E0E0E93
:10014000E15E1E5006C014F007C015F008C016F09E
:1001500009C017F0DF50160DF3CFE9FFF4CFEAFF27
:10016000A80EE9260E0EEA22050EE926000EEA2266
:1001700014C0EEFF15C0EEFF16C0EEFF17C0EEFF75
:10018000DF50160DF3CFE9FFF4CFEAFFA80EE92602
:100190000E0EEA22050EE926000EEA22E868EE18A5
:1001A00008E1E868EE1805E1E868EE1802E1E868A1
:1001B000EE1872E0020EDB6AF36EDBCFF4FFF35051
:1001C000F45C6AE2020EDB50160DF3CFE9FFF4CFC8
:1001D000EAFFA80EE9260E0EEA22140EE926000E0A
:1001E000EA22EF50010B55E0DF50F36E020EDB50B8
:1001F000F35C4FE0020EDB50160DF3CFE9FFF4CFB6
:10020000EAFFA80EE9260E0EEA22EECF14F0EECF9A
:1002100015F0EECF16F0EFCF17F0DF50160DF3CF3D
:10022000E9FFF4CFEAFFA80EE9260E0EEA221450E9
:10023000EE1809E11550EE1806E11650EE1803E12C
:100240001750EE1800E125E1020EDB50160DF3CF3A
:10025000E9FFF4CFEAFFA80EE9260E0EEA22040E0B
:10026000E926000EEA22EFCF18F0DF50160DF3CF8B
:10027000E9FFF4CFEAFFA80EE9260E0EEA22040EEB
:10028000E926000EEA22EF50185C03E1F36AF46AF3
:10029000E8D3020EDB2A90D7DF50160DF3CFE9FF2B
:1002A000F4CFEAFFA80EE9260E0EEA22050EE92693
:1002B000000EEA22E868EE1808E1E868EE1805E1A9
:1002C000E868EE1802E1E868EE180CE1FB0EDBCFFF
:1002D000E9FFFC0EDBCFEAFFEF50720803E1F36A9F
:1002E000F46ABFD3DF50160DF3CFE9FFF4CFEAFF76
:1002F000A80EE9260E0EEA22050EE926000EEA22D5
:10030000E868EE1808E1E868EE1805E1E868EE181C
:1003100002E1E868EE1826E0FB0EDBCFE9FFFC0EF9
:10032000DBCFEAFFEF5077081DE1FD0EDBCFE6FFE4
:10033000FE0EDBCFE6FF7CEC15F0E552E552DF5018
:10034000160DF3CFE9FFF4CFEAFFA80EE9260E0E53
:10035000EA22050EE926000EEA22EE68EE68EE6853
:10036000EE6800D0DF50160DF3CFE9FFF4CFEAFFBF
:10037000A80EE9260E0EEA22050EE926000EEA2254
:10038000E868EE1808E1E868EE1805E1E868EE189C
:1003900002E1E868EE1861E1DF50160DF3CFE9FFE6
:1003A000F4CFEAFFA80EE9260E0EEA22040EE92693
:1003B000000EEA22E9CF14F0EACF15F014C0E6FFF0
:1003C00015C0E6FFDF50160DF3CFE9FFF4CFEAFFCB
:1003D000A80EE9260E0EEA22E9CF16F0EACF17F0B2
:1003E00016C0E6FF17C0E6FFDF50160DF3CFE9FF9A
:1003F000F4CFEAFFA80EE9260E0EEA22050EE92642
:10040000000EEA22E9CF18F0EACF19F018C0E6FF93
:1004100019C0E6FFFD0EDBCFE6FFFE0EDBCFE6FFE9
:10042000EEEC25F01A6E080EE15E1A50000903E1A9
:10043000F36AF46A16D3DF50160DF3CFE9FFF4CF59
:10044000EAFFA80EE9260E0EEA22100EE926000E9B
:10045000EA22EE6AEE6AEE6AEE6ADF50160DF3CF1C
:10046000E9FFF4CFEAFFA80EE9260E0EEA22140EE9
:10047000E926000EEA22EF80DF50160DF3CFE9FFE8
:10048000F4CFEAFFA80EE9260E0EEA22140EE926A2
:10049000000EEA22EF9ADF50160DF3CFE9FFF4CFFA
:1004A000EAFFA80EE9260E0EEA22140EE926000E37
:1004B000EA22EF9CDF50160DF3CFE9FFF4CFEAFFFD
:1004C000A80EE9260E0EEA22140EE926000EEA22F4
:1004D000EF9EFB0EDBCFE9FFFC0EDBCFEAFFEF5018
:1004E000720801E0C8D0010EE76EFB0EDBCFE9FF1A
:1004F000FC0EDBCFEAFFE750E926000EEA22EF50C0
:100500002B081DE0010EE76EFB0EDBCFE9FFFC0EB2
:10051000DBCFEAFFE750E926000EEA22EF503DE08C
:10052000020EE76EFB0EDBCFE9FFFC0EDBCFEAFF2E
:10053000E750E926000EEA22EF502B082EE1DF50AB
:10054000160DF3CFE9FFF4CFEAFFA80EE9260E0E51
:10055000EA22140EE926000EEA22EF82DF50160D81
:10056000F3CFE9FFF4CFEAFFA80EE9260E0EEA2248
:10057000140EE926000EEA22EF84DF50160DF3CFA9
:10058000E9FFF4CFEAFFA80EE9260E0EEA22140EC8
:10059000E926000EEA22EF962DD0DF50160DF3CF9C
:1005A000E9FFF4CFEAFFA80EE9260E0EEA22140EA8
:1005B000E926000EEA22EF82DF50160DF3CFE9FFA5
:1005C000F4CFEAFFA80EE9260E0EEA22140EE92661
:1005D000000EEA22EF94DF50160DF3CFE9FFF4CFBF
:1005E000EAFFA80EE9260E0EEA22140EE926000EF6
:1005F000EA22EF96DF50160DF3CFE9FFF4CFEAFFC2
:10060000A80EE9260E0EEA22090EE926000EEA22BD
:10061000EF6ADF50160DF3CFE9FFF4CFEAFFA80E23
:10062000E9260E0EEA220A0EE926000EEA22EE6AFA
:10063000ED6ADF50160DF3CFE9FFF4CFEAFFA80E05
:10064000E9260E0EEA220C0EE926000EEA22EE6AD8
:10065000EE6AEE6AEE6ADF50160DF3CFE9FFF4CFD3
:10066000EAFFA80EE9260E0EEA22140EE926000E75
:10067000EA22EF98E7D1FB0EDBCFE9FFFC0EDBCFE0
:10068000EAFFEF50770801E0C8D0010EE76EFB0EDD
:10069000DBCFE9FFFC0EDBCFEAFFE750E926000ED7
:1006A000EA22EF502B081DE0010EE76EFB0EDBCFB8
:1006B000E9FFFC0EDBCFEAFFE750E926000EEA2255
:1006C000EF503DE0020EE76EFB0EDBCFE9FFFC0EC4
:1006D000DBCFEAFFE750E926000EEA22EF502B08B5
:1006E0002EE1DF50160DF3CFE9FFF4CFEAFFA80E9D
:1006F000E9260E0EEA22140EE926000EEA22EF8207
:10070000DF50160DF3CFE9FFF4CFEAFFA80EE9267C
:100710000E0EEA22140EE926000EEA22EF84DF50C4
:10072000160DF3CFE9FFF4CFEAFFA80EE9260E0E6F
:10073000EA22140EE926000EEA22EF962DD0DF50B1
:10074000160DF3CFE9FFF4CFEAFFA80EE9260E0E4F
:10075000EA22140EE926000EEA22EF92DF50160D6F
:10076000F3CFE9FFF4CFEAFFA80EE9260E0EEA2246
:10077000140EE926000EEA22EF84DF50160DF3CFA7
:10078000E9FFF4CFEAFFA80EE9260E0EEA22140EC6
:10079000E926000EEA22EF96DF50160DF3CFE9FFAF
:1007A000F4CFEAFFA80EE9260E0EEA22090EE9268A
:1007B000000EEA22EF6ADF50160DF3CFE9FFF4CF07
:1007C000EAFFA80EE9260E0EEA220A0EE926000E1E
:1007D000EA22EE6AED6ADF50160DF3CFE9FFF4CF9F
:1007E000EAFFA80EE9260E0EEA220C0EE926000EFC
:1007F000EA22EE6AEE6AEE6AEE6ADF50160DF3CF79
:10080000E9FFF4CFEAFFA80EE9260E0EEA22140E45
:10081000E926000EEA22EF9815D1FB0EDBCFE9FFA7
:10082000FC0EDBCFEAFFEF50610801E00BD1010EB7
:10083000E76EFB0EDBCFE9FFFC0EDBCFEAFFE750F4
:10084000E926000EEA22EF502B081DE0010EE76EAC
:10085000FB0EDBCFE9FFFC0EDBCFEAFFE750E9261A
:10086000000EEA22EF503DE0020EE76EFB0EDBCFFA
:10087000E9FFFC0EDBCFEAFFE750E926000EEA2293
:10088000EF502B082EE1DF50160DF3CFE9FFF4CF28
:10089000EAFFA80EE9260E0EEA22140EE926000E43
:1008A000EA22EF82DF50160DF3CFE9FFF4CFEAFF23
:1008B000A80EE9260E0EEA22140EE926000EEA2200
:1008C000EF84DF50160DF3CFE9FFF4CFEAFFA80E57
:1008D000E9260E0EEA22140EE926000EEA22EF8621
:1008E0002DD0DF50160DF3CFE9FFF4CFEAFFA80EAD
:1008F000E9260E0EEA22140EE926000EEA22EF92F5
:10090000DF50160DF3CFE9FFF4CFEAFFA80EE9267A
:100910000E0EEA22140EE926000EEA22EF84DF50C2
:10092000160DF3CFE9FFF4CFEAFFA80EE9260E0E6D
:10093000EA22140EE926000EEA22EF86DF50160D99
:10094000F3CFE9FFF4CFEAFFA80EE9260E0EEA2264
:10095000090EE926000EEA22EF6ADF50160DF3CFEA
:10096000E9FFF4CFEAFFA80EE9260E0EEA220A0EEE
:10097000E926000EEA22EE6AED6ADF50160DF3CF8B
:10098000E9FFF4CFEAFFA80EE9260E0EEA220C0ECC
:10099000E926000EEA22EE6AEE6AEE6AEE6ADF509F
:1009A000160DF3CFE9FFF4CFEAFFA80EE9260E0EED
:1009B000EA22140EE926000EEA22EF98020EE66EF5
:1009C000E66AE66AE66AE66AE66ADF50160DF3CF83
:1009D00014F0F4CF15F0A80E14260E0E152214C034
:1009E000E6FF15C0E6FF47D8166E080EE15E16500A
:1009F000DF50160DF3CFE9FFF4CFEAFFA80EE9268A
:100A00000E0EEA22100EE926000EEA22EECF14F0B6
:100A1000EECF15F0EECF16F0EFCF17F01450151003
:100A2000161017100FE0DF50160DF3CFE9FFF4CFCB
:100A3000EAFFA80EE9260E0EEA22140EE926000EA1
:100A4000EA22EF88DF50160DF3CF14F0F4CF15F043
:100A5000A80E14260E0E152214C0F3FF15C0F4FFC5
:100A600000D00E0EE15C02E2E16AE552E16EE55271
:100A7000E7CFD9FF1200D9CFE6FFE1CFD9FF0D0EA6
:100A8000E12600019951166E176A16C008F017C0CA
:100A900009F0D4CE0DF0D5CE0EF0EDEC3DF006C051
:100AA00014F007C015F0080E14C0DBFF090E15C0C6
:100AB000DBFF0A0EDB6A0B0EDB6AFD0EDBCFE9FF04
:100AC000FE0EDBCFEAFF140EE926000EEA22EF50FD
:100AD000010B05E1010EF36EF46AA1EF0BF0D950A2
:100AE000F70FE96EFF0EDA20EA6EEE50ED1047E1E7
:100AF000D950F90FE96EFF0EDA20EA6ED890030E96
:100B0000EB50000A08E6000EEE5C000EEE58000EF8
:100B1000EE58000EEE5806E2010EF36EF46AA1EFF5
:100B20000BF02CD0F90EDBCF14F0FA0EDBCF15F062
:100B3000FB0EDBCF16F0FC0EDBCF17F014501510B8
:100B40001610171009E1040EDB6A050EDB6A060EAB
:100B5000DB6A070EDB6A12D0D950F90FE96EFF0E7F
:100B6000DA20EA6E040EEECFDBFF050EEECFDBFFE0
:100B7000060EEECFDBFF070EEECFDBFF13D1D95011
:100B8000F70FE96EFF0EDA20EA6E010EEE1801E1B2
:100B9000ED5075E1FD0EDBCFE9FFFE0EDBCFEAFF86
:100BA0000C0EE926000EEA22040EEECFDBFF050E46
:100BB000EECFDBFF060EEECFDBFF070EEECFDBFF47
:100BC000FD0EDBCFE9FFFE0EDBCFEAFF140EE926B8
:100BD000000EEA22EF50100B0AE0D950040FE96E24
:100BE000DACFEAFFEE2A000EEE22EE22EE22D950F4
:100BF000F90FE96EFF0EDA20EA6ED890030EEB5083
:100C0000000A08E6000EEE5C000EEE58000EEE58EC
:100C1000000EEE5822E2F90EDBCF14F0FA0EDBCF15
:100C200015F0FB0EDBCF16F0FC0EDBCF17F0000E3D
:100C3000146C151E1522161E1622171E1722D950C7
:100C4000040FE96EDACFEAFF1450EE5E1550EE5A4B
:100C50001650EE5A1750EE5A11D0D950040FE96EC3
:100C6000DACFEAFFF90EDB50EE26FA0EDB50EE2269
:100C7000FB0EDB50EE22FC0EDB50EE2293D0D9505F
:100C8000F70FE96EFF0EDA20EA6E020EEE1801E1B0
:100C9000ED5001E082D0F90EDBCF07F0FA0EDBCF8A
:100CA00008F0FB0EDBCF09F0FC0EDBCF0AF00A34B4
:100CB000000E0A1809E6D880010E0754000E0854E9
:100CC000000E0954000E0A5406E2010EF36EF46A97
:100CD000A1EF0BF061D0D950F90FE96EFF0EDA20C9
:100CE000EA6E010EEE1805E1EE5003E1EE5001E16F
:100CF000EE5017E1FD0EDBCFE9FFFE0EDBCFEAFF82
:100D0000100EE926000EEA22040EEECFDBFF050EE0
:100D1000EECFDBFF060EEECFDBFF070EEECFDBFFE5
:100D20003BD0F90EDBCF18F0FA0EDBCF19F0FB0E3B
:100D3000DBCF1AF0FC0EDBCF1BF0000E186C191E77
:100D400019221A1E1A221B1E1B22FD0EDBCFE9FFE1
:100D5000FE0EDBCFEAFF100EE926000EEA22185045
:100D6000EE5C146E1950EE58156E1A50EE58166E51
:100D70001B50EE58176E1406000E155A165A175AC5
:100D8000040E14C0DBFF050E15C0DBFF060E16C0F7
:100D9000DBFF070E17C0DBFF05D0010EF36EF46A10
:100DA000A1EF0BF0040EDBCF14F0050EDBCF15F036
:100DB000060EDBCF16F0070EDBCF17F0FD0EDBCFF4
:100DC000E9FFFE0EDBCFEAFF100EE926000EEA2255
:100DD0001450EE5C1550EE581650EE581750EE5861
:100DE00006E2010EF36EF46AA1EF0BF061D0040E7F
:100DF000DBCF14F0050EDBCF15F0060EDBCF16F0BF
:100E0000070EDBCF17F0FD0EDBCFE9FFFE0EDBCFC9
:100E1000EAFF100EE926000EEA221450EE1809E14E
:100E20001550EE1806E11650EE1803E11750EE18B3
:100E300000E133E1040EDBCF14F0050EDBCF15F03B
:100E4000060EDBCF16F0070EDBCF17F0145015108F
:100E50001610171016E0D950040FE96EDACFEAFF2A
:100E6000EE06000EEE5AEE5AEE5AFD0EDBCFE9FF0B
:100E7000FE0EDBCFEAFF140EE926000EEA22EF8811
:100E80000BD0FD0EDBCFE9FFFE0EDBCFEAFF140E29
:100E9000E926000EEA22EF980BD0FD0EDBCFE9FF2A
:100EA000FE0EDBCFEAFF140EE926000EEA22EF98D1
:100EB000040EDBCF14F0050EDBCF15F0060EDBCFF2
:100EC00016F0070EDBCF17F0145015101610171080
:100ED00048E1FD0EDBCFE6FFFE0EDBCFE6FFF0ECD8
:100EE00024F0E552E55206C014F007C015F008C022
:100EF00016F009C017F0FD0EDBCFE9FFFE0EDBCFC9
:100F0000EAFF050EE926000EEA2214C0EEFF15C026
:100F1000EEFF16C0EEFF17C0EEFFFD0EDBCFE9FFC0
:100F2000FE0EDBCFEAFF090EE926000EEA22EF6A89
:100F3000FD0EDBCFE9FFFE0EDBCFEAFF0A0EEB6A08
:100F40000B0EEB6AFD0EDBCFE9FFFE0EDBCFEAFFF7
:100F50000C0EE926000EEA22EE6AEE6AEE6AEE6AEE
:100F6000E2D3040EDBCF14F0050EDBCF15F0060E36
:100F7000DBCF16F0070EDBCF17F0FD0EDBCFE9FF5E
:100F8000FE0EDBCFEAFF0C0EE926000EEA2214501B
:100F9000EE1809E11550EE1806E11650EE1803E1BF
:100FA0001750EE1800E103E10C0EDB6AD2D2040EFA
:100FB000DBCF14F0050EDBCF15F0060EDBCF16F0FD
:100FC000070EDBCF17F0FD0EDBCFE9FFFE0EDBCF08
:100FD000EAFF0C0EE926000EEA22EE50145CEE50F9
:100FE0001558EE501658EE50175801E34DD1040E27
:100FF000DBCF18F0050EDBCF19F0060EDBCF1AF0B1
:10100000070EDBCF1BF0FD0EDBCFE9FFFE0EDBCFC3
:10101000EAFF0C0EE926000EEA221850EE5C146E70
:101020001950EE58156E1A50EE58166E1B50EE58A9
:10103000176EFD0EDBCFE9FFFE0EDBCFEAFF0A0ED7
:10104000E926000EEA22EECF20F0EFCF21F0FD0ED0
:10105000DBCFE9FFFE0EDBCFEAFF090EE926000E2B
:10106000EA22EF50226E236A22C008F023C009F062
:10107000D4CE0DF0D5CE0EF0EDEC3DF02050062490
:101080001C6E215007201D6E1E6A1F6A1C50145CC6
:101090001D5015581E5016581F50175801E3EED01A
:1010A0000C0EDB6AD9CFE9FFDACFEAFF040EDBCF03
:1010B000EEFF050EDBCFEEFF060EDBCFEEFF070ED9
:1010C000DBCFEEFF040EDBCF18F0050EDBCF19F0FF
:1010D000060EDBCF1AF0070EDBCF1BF0FD0EDBCFC9
:1010E000E9FFFE0EDBCFEAFF0C0EE926000EEA2236
:1010F0001850EE5C146E1950EE58156E1A50EE58DA
:10110000166E1B50EE58176E040E14C0DBFF050E52
:1011100015C0DBFF060E16C0DBFF070E17C0DBFF96
:10112000FD0EDBCFE9FFFE0EDBCFEAFF0C0EE9265A
:10113000000EEA22DFCFEEFF010EDBCFEEFF020E44
:10114000DBCFEEFF030EDBCFEEFFD4CE14F0D5CE17
:1011500015F0166A176AD950040FE96EDACFEAFF64
:101160001450EE5C1550EE581650EE581750EE58CD
:1011700031E3D4CE14F0D5CE15F0166A176AD950E3
:10118000040FE96EDACFEAFF1450EE5E1550EE5A06
:101190001650EE5A1750EE5AFD0EDBCFE9FFFE0E49
:1011A000DBCFEAFF090EE926000EEA22EF500CE041
:1011B000FD0EDBCFE9FFFE0EDBCFEAFF090EE926CD
:1011C000000EEA22EF0605D0010EF36E0C0EF3CFEF
:1011D000DBFFBBD7040EDBCF14F0050EDBCF15F021
:1011E000FD0EDBCFE9FFFE0EDBCFEAFF0A0EE9269C
:1011F000000EEA221450EE5E1550ED5AFD0EDBCFC4
:10120000E9FFFE0EDBCFEAFF0A0EE926000EEA2216
:10121000EECF14F0EFCF15F00E01D451145CD55180
:1012200015582BE3FD0EDBCFE9FFFE0EDBCFEAFF07
:101230000A0EE926000EEA22D451EE26D551ED22FF
:10124000FD0EDBCFE9FFFE0EDBCFEAFF090EE9263C
:10125000000EEA22EF500CE0FD0EDBCFE9FFFE0EA0
:10126000DBCFEAFF090EE926000EEA22EF0605D0E1
:10127000010EF36E0C0EF3CFDBFF05D0010EF36E03
:101280000C0EF3CFDBFF65D1040EDBCF18F0050E9B
:10129000DBCF19F0060EDBCF1AF0070EDBCF1BF009
:1012A000FD0EDBCFE9FFFE0EDBCFEAFF0C0EE926D9
:1012B000000EEA22EE50185C146EEE501958156EAE
:1012C000EE501A58166EEE501B58176EFD0EDBCFFF
:1012D000E9FFFE0EDBCFEAFF0A0EE926000EEA2246
:1012E000EECF24F0EFCF25F0FD0EDBCFE9FFFE0EB1
:1012F000DBCFEAFF090EE926000EEA22EF50266E48
:10130000276A26C008F027C009F0D4CE0DF0D5CE4C
:101310000EF0EDEC3DF024500624206E2550072001
:10132000216E226A236AD950080FE96EDACFEAFFEC
:101330002050EE5C1C6E2150EE581D6E2250EE586F
:101340001E6E2350EE581F6E1C50145C1D50155815
:101350001E5016581F50175801E3F6D00C0EDB6ACA
:10136000D9CFE9FFDACFEAFF040EDBCFEEFF050E9F
:10137000DBCFEEFF060EDBCFEEFF070EDBCFEEFF7F
:10138000040EDBCF18F0050EDBCF19F0060EDBCF15
:101390001AF0070EDBCF1BF0FD0EDBCFE9FFFE0ED0
:1013A000DBCFEAFF0C0EE926000EEA22EE50185CB5
:1013B000146EEE501958156EEE501A58166EEE5007
:1013C0001B58176E040E14C0DBFF050E15C0DBFFA3
:1013D000060E16C0DBFF070E17C0DBFFFD0EDBCFCE
:1013E000E9FFFE0EDBCFEAFF0C0EE926000EEA2233
:1013F000DFCFEEFF010EDBCFEEFF020EDBCFEEFF05
:10140000030EDBCFEEFFD4CE14F0D5CE15F0166A66
:10141000176AD950040FE96EDACFEAFF1450EE5C78
:101420001550EE581650EE581750EE5835E3D4CEFE
:1014300014F0D5CE15F0166A176AD950040FE96E6C
:10144000DACFEAFF1450EE5E1550EE5A1650EE5AFF
:101450001750EE5AFD0EDBCFE9FFFE0EDBCFEAFFA1
:10146000090EE926000EEA22EFCF14F0000199518F
:10147000145C0CE2FD0EDBCFE9FFFE0EDBCFEAFFD2
:10148000090EE926000EEA22EF2A05D0010EF36EBE
:101490000C0EF3CFDBFFB7D7040EDBCF14F0050E35
:1014A000DBCF15F0FD0EDBCFE9FFFE0EDBCFEAFF51
:1014B0000A0EE926000EEA221450EE261550ED22FF
:1014C000FD0EDBCFE9FFFE0EDBCFEAFF0A0EE926B9
:1014D000000EEA22EECF14F0EFCF15F00E01D4513A
:1014E000145CD55115582FE3FD0EDBCFE9FFFE0E3E
:1014F000DBCFEAFF0A0EE926000EEA22D451EE5EA7
:10150000D551ED5AFD0EDBCFE9FFFE0EDBCFEAFF32
:10151000090EE926000EEA22EFCF14F000019951DE
:10152000145C0CE2FD0EDBCFE9FFFE0EDBCFEAFF21
:10153000090EE926000EEA22EF2A05D0010EF36E0D
:101540000C0EF3CFDBFF05D0010EF36E0C0EF3CFC4
:10155000DBFF0C0EDB5001E1E6D0FD0EDBCFE6FF3A
:10156000FE0EDBCFE6FFF0EC24F0E552E55206C0BC
:1015700014F007C015F008C016F009C017F0FD0EF2
:10158000DBCFE9FFFE0EDBCFEAFF050EE926000EFA
:10159000EA2214C0EEFF15C0EEFF16C0EEFF17C022
:1015A000EEFFFD0EDBCFE9FFFE0EDBCFEAFF090EFB
:1015B000E926000EEA22EF6AFD0EDBCFE9FFFE0E00
:1015C000DBCFEAFF0C0EE926000EEA22040EDBCF89
:1015D000EEFF050EDBCFEEFF060EDBCFEEFF070EB4
:1015E000DBCFEEFF080EDBCF14F0090EDBCF15F0DA
:1015F0000A0EDBCF16F00B0EDBCF17F0D950040F1D
:10160000E96EDACFEAFF1450EE5C1550EE58165032
:10161000EE581750EE5844E3D950040FE96EDACF74
:10162000EAFF080EDB50EE5E090EDB50EE5A0A0EA2
:10163000DB50EE5A0B0EDB50EE5AFD0EDBCFE9FF0E
:10164000FE0EDBCFEAFF050EE926000EEA22EECF02
:10165000E6FFEECFE6FFEECFE6FFEFCFE6FF87EC4B
:1016600029F0E552E552E552E55206C014F007C0F4
:1016700015F008C016F009C017F0FD0EDBCFE9FF2A
:10168000FE0EDBCFEAFF050EE926000EEA2214C0AB
:10169000EEFF15C0EEFF16C0EEFF17C0EEFFA2D79B
:1016A000D4CE14F0D5CE15F0166A176AD950040FAF
:1016B000E96EDACFEAFF1450EE5C1550EE58165082
:1016C000EE581750EE581FE3D4CE14F0D5CE15F0D7
:1016D000166A176AD950040FE96EDACFEAFF145080
:1016E000EE5E1550EE5A1650EE5A1750EE5AFD0E99
:1016F000DBCFE9FFFE0EDBCFEAFF090EE926000E85
:10170000EA22EF2ACDD7FD0EDBCFE9FFFE0EDBCFBD
:10171000EAFF0A0EE926000EEA22040EDBCFEEFFF6
:10172000050EDBCFEDFFFD0EDBCFE9FFFE0EDBCFBD
:10173000EAFF140EE926000EEA22EF9CF36AF46A2F
:1017400000D00D0EE15C02E2E16AE552E16EE55285
:10175000E7CFD9FF1200D9CFE6FFE1CFD9FFFD0EC9
:10176000DBCFE9FFFE0EDBCFEAFF140EE926000E09
:10177000EA22EF50010B04E1010EF36EF46A28D067
:10178000FD0EDBCFE9FFFE0EDBCFEAFF140EE926EC
:10179000000EEA22EF9CE66EE66AFB0EDBCFE9FF65
:1017A000FC0EDBCFEAFFEECFE6FFEECFE6FFEECF9B
:1017B000E6FFEFCFE6FFFD0EDBCFE6FFFE0EDBCF51
:1017C000E6FF3BEC05F0146E080EE15E145000D00D
:1017D000E552E7CFD9FF1200D9CFE6FFE1CFD9FF1D
:1017E000FD0EDBCFE9FFFE0EDBCFEAFF140EE9268C
:1017F000000EEA22EF50010B06E1010E066E076AA9
:10180000086A096A49D0FD0EDBCFE9FFFE0EDBCF87
:10181000EAFF140EE926000EEA22EF50100B21E039
:10182000010E146E156A166A176AFD0EDBCFE9FF0A
:10183000FE0EDBCFEAFF0C0EE926000EEA22EE5088
:101840001426EE501522EE501622EE50172214C028
:1018500006F015C007F016C008F017C009F01CD03C
:101860001BD0FD0EDBCFE9FFFE0EDBCFEAFF0C0E37
:10187000E926000EEA22EECF14F0EECF15F0EECFFF
:1018800016F0EFCF17F014C006F015C007F016C021
:1018900008F017C009F000D0E552E7CFD9FF1200D9
:1018A000D9CFE6FFE1CFD9FFFD0EDBCFE9FFFE0E7A
:1018B000DBCFEAFF140EE926000EEA22EF50010BFF
:1018C00004E1010EF36EF46A22D0FD0EDBCFE6FFD9
:1018D000FE0EDBCFE6FF80DFE552E55206C014F0D6
:1018E00007C015F008C016F009C017F0FB0EDBCFDB
:1018F000E9FFFC0EDBCFEAFF14C0EEFF15C0EEFFE0
:1019000016C0EEFF17C0EEFFF36AF46A00D0E5528E
:10191000E7CFD9FF1200D9CFE6FFE1CFD9FF000E04
:10192000E66EE66AE66AE66AE66AE66AFD0EDBCF1E
:10193000E6FFFE0EDBCFE6FF3BEC05F0146E080E73
:10194000E15E1450FD0EDBCFE9FFFE0EDBCFEAFFB8
:10195000140EE926000EEA22EF9AE552E7CFD9FFEE
:101960001200D9CFE6FFE1CFD9FF060EE126000134
:10197000AE5103E0F368F4688FD2FB0EDBCFE9FFD2
:10198000FC0EDBCFEAFF140EE926000EEA22EF5030
:10199000010B03E1F368F4687FD2FB0EDBCFE9FFB4
:1019A000FC0EDBCFEAFF140EE926000EEA22EF5010
:1019B000040B0EE1FB0EDBCFE9FFFC0EDBCFEAFFF1
:1019C000140EE926000EEA22EF8AF368F46864D266
:1019D000FB0EDBCFE9FFFC0EDBCFEAFF140EE9269E
:1019E000000EEA22EF50080B5EE0FB0EDBCFE9FFB2
:1019F000FC0EDBCFEAFF0C0EE926000EEA22EECF4A
:101A0000DFFF010EEECFDBFF020EEECFDBFF030E9A
:101A1000EECFDBFFFB0EDBCFE9FFFC0EDBCFEAFFF7
:101A2000140EE926000EEA22EF50100B09E0D9CF80
:101A3000E9FFDACFEAFFEE2A000EEE22EE22EE22D6
:101A4000FB0EDBCFE9FFFC0EDBCFEAFF100EE92631
:101A5000000EEA22EECF14F0EECF15F0EECF16F026
:101A6000EFCF17F0D9CFE9FFDACFEAFF1450EE5CE1
:101A70001550EE581650EE581750EE5814E2020E5C
:101A8000E66EE66A010EE66EE66AE66AE66AFB0E56
:101A9000DBCFE6FFFC0EDBCFE6FF3BEC05F0146E80
:101AA000080EE15E1450FB0EDBCFE9FFFC0EDBCF2E
:101AB000EAFF140EE926000EEA22EF50100B01E1B6
:101AC000E6D0FB0EDBCFE9FFFC0EDBCFEAFF0C0E0E
:101AD000E926000EEA22EE2AEE22EE22EE22FB0E8C
:101AE000DBCFE9FFFC0EDBCFEAFF0A0EE926000E92
:101AF000EA22EE2AEF22FB0EDBCFE9FFFC0EDBCF62
:101B0000EAFF0A0EE926000EEA22EECF14F0EFCF2C
:101B100015F00E01D451145CD551155801E2ACD02A
:101B2000FB0EDBCFE9FFFC0EDBCFEAFF0A0EEB6A10
:101B30000B0EEB6AFB0EDBCFE9FFFC0EDBCFEAFFFF
:101B4000090EE926000EEA22EF2AFB0EDBCFE9FFA1
:101B5000FC0EDBCFEAFF090EE926000EEA22EFCFEA
:101B600014F000019951145C01E286D0FB0EDBCF2A
:101B7000E9FFFC0EDBCFEAFF090EE926000EEA22A0
:101B8000EF6A0AEC27F006C0DEFF07C0DEFF08C0E0
:101B9000DEFF09C0DDFFDD52DD52D9CFE9FFDACF2C
:101BA000EAFFE868EE1808E1E868EE1805E1E86881
:101BB000EE1802E1E868EE180FE18B82FB0EDBCF36
:101BC000E9FFFC0EDBCFEAFF140EE926000EEA2245
:101BD000EF8CF368F46860D1D9CFE9FFDACFEAFF80
:101BE000EECFE6FFEECFE6FFEECFE6FFEFCFE6FF6C
:101BF000FB0EDBCFE9FFFC0EDBCFEAFF050EE9268B
:101C0000000EEA22EECFE6FFEECFE6FFEECFE6FFD4
:101C1000EFCFE6FF6FEC2BF0146E080EE15E145070
:101C2000E668E668E6680F0EE66ED9CFE9FFDACF20
:101C3000EAFFEECFE6FFEECFE6FFEECFE6FFEFCF17
:101C4000E6FF6FEC2BF0146E080EE15E1450FB0EF5
:101C5000DBCFE9FFFC0EDBCFEAFF050EE926000E25
:101C6000EA22DFCFEEFF010EDBCFEEFF020EDBCF6D
:101C7000EEFF030EDBCFEEFFFB0EDBCFE9FFFC0E2A
:101C8000DBCFEAFF140EE926000EEA22EF98FB0EE6
:101C9000DBCFE9FFFC0EDBCFEAFF090EE926000EE1
:101CA000EA22EFCF20F0216A226A236A99C01CF051
:101CB0001D6A1E6A1F6AFB0EDBCFE9FFFC0EDBCF3D
:101CC000EAFF050EE926000EEA22EECF18F0EECF6D
:101CD00019F0EECF1AF0EFCF1BF0020E185E000ED7
:101CE000195A1A5A1B5A18C006F019C007F01AC020
:101CF00008F01BC009F01CC00BF01DC00CF01EC08A
:101D00000DF01FC00EF091EC3DF0025000012024B8
:101D1000146E03502120156E04502220166E0550BB
:101D20002320176E000194511426955115229651C7
:101D300016229751172214C0DFFF010E15C0DBFFDA
:101D4000020E16C0DBFF030E17C0DBFFD9CFE9FF81
:101D5000DACFEAFF0001AA51EE1809E1AB51EE1803
:101D600006E1AC51EE1803E1AD51EE1800E112E0CE
:101D7000D9CFE9FFDACFEAFFEECFE6FFEECFE6FFFD
:101D8000EECFE6FFEFCFE6FFA3EC36F0E552E552EB
:101D9000E552E552FB0EDBCFE9FFFC0EDBCFEAFF9D
:101DA0000A0EE926000EEA22EECF14F0EFCF15F06E
:101DB000000E1426060E1522040E14C0DBFF050EBD
:101DC00015C0DBFFFF0EE76EFD0EDBCF14F0FE0E3D
:101DD000DBCF15F0E7501416156A040EDBCFE9FFD0
:101DE000050EDBCFEAFF14C0EFFFFB0EDBCFE9FFF0
:101DF000FC0EDBCFEAFF100EE926000EEA22EECF42
:101E000014F0EECF15F0EECF16F0EFCF17F0FB0E7B
:101E1000DBCFE9FFFC0EDBCFEAFF0C0EE926000E5C
:101E2000EA221450EE5C1550EE581650EE5817503A
:101E3000EE5819E3FB0EDBCFE9FFFC0EDBCFEAFF28
:101E4000100EE926000EEA22EE2AEE22EE22EE2203
:101E5000FB0EDBCFE9FFFC0EDBCFEAFF140EE92619
:101E6000000EEA22EF8EFB0EDBCFE9FFFC0EDBCF8C
:101E7000EAFF140EE926000EEA22EF880001010EA7
:101E80008B6FFD0EDBCF14F0FE0EDBCF15F014C010
:101E9000F3FF15C0F4FF00D0060EE15C02E2E16A38
:101EA000E552E16EE552E7CFD9FF1200D9CFE6FF48
:101EB000E1CFD9FF070EE126FD0EDBCFE9FFFE0ED5
:101EC000DBCFEAFF140EE926000EEA22EF50010BE9
:101ED00003E1F368F4681FD2FD0EDBCFE9FFFE0ECD
:101EE000DBCFEAFF140EE926000EEA22EF50020BC8
:101EF0000EE1FD0EDBCFE9FFFE0EDBCFEAFF140E95
:101F0000E926000EEA22EF8AF368F46804D2FD0E97
:101F1000DBCFE9FFFE0EDBCFEAFF0C0EE926000E59
:101F2000EA22010EEECFDBFF020EEECFDBFF030E47
:101F3000EECFDBFF040EEECFDBFFFD0EDBCFE9FFC4
:101F4000FE0EDBCFEAFF140EE926000EEA22EF5068
:101F5000100B0AE0D950010FE96EDACFEAFFEE2A42
:101F6000000EEE22EE22EE22010EDBCF14F0020E66
:101F7000DBCF15F0030EDBCF16F0040EDBCF17F02E
:101F8000FD0EDBCFE9FFFE0EDBCFEAFF100EE926E8
:101F9000000EEA22EE50145CEE501558EE50165822
:101FA000EE5017580EE3FD0EDBCFE9FFFE0EDBCF40
:101FB000EAFF140EE926000EEA22EF8CF368F468BB
:101FC000AAD1FD0EDBCFE9FFFE0EDBCFEAFF140E38
:101FD000E926000EEA22EF50100B01E1E3D0FD0EDE
:101FE000DBCFE9FFFE0EDBCFEAFF0C0EE926000E89
:101FF000EA22EE2AEE22EE22EE22FD0EDBCFE9FFF0
:10200000FE0EDBCFEAFF0A0EE926000EEA22EE2AD8
:10201000EF22FD0EDBCFE9FFFE0EDBCFEAFF0A0E5B
:10202000E926000EEA22EECF14F0EFCF15F00E01F4
:10203000D451145CD551155801E2A9D0FD0EDBCF67
:10204000E9FFFE0EDBCFEAFF0A0EEB6A0B0EEB6A2E
:10205000FD0EDBCFE9FFFE0EDBCFEAFF090EE9261E
:10206000000EEA22EF2AFD0EDBCFE9FFFE0EDBCFEA
:10207000EAFF090EE926000EEA22EFCF14F0000174
:102080009951145C01E283D0FD0EDBCFE9FFFE0E17
:10209000DBCFEAFF090EE926000EEA22EF6AFD0E09
:1020A000DBCFE9FFFE0EDBCFEAFF050EE926000ECF
:1020B000EA22EECFE6FFEECFE6FFEECFE6FFEFCF70
:1020C000E6FF87EC29F0E552E552E552E552010EB4
:1020D00006C0DBFF020E07C0DBFF030E08C0DBFFFC
:1020E000040E09C0DBFF000198511EE0D950010F1A
:1020F000E96EDACFEAFFF80EEE5CFF0EEE58FF0E47
:10210000EE580F0EEE580FE38B82FD0EDBCFE9FF8A
:10211000FE0EDBCFEAFF140EE926000EEA22EF8C5A
:10212000F368F468F8D01DD0D950010FE96EDACF0A
:10213000EAFFF80EEE5CFF0EEE58000EEE58000EB1
:10214000EE580FE38B82FD0EDBCFE9FFFE0EDBCFF7
:10215000EAFF140EE926000EEA22EF8CF368F46819
:10216000DAD0FD0EDBCFE9FFFE0EDBCFEAFF050E76
:10217000E926000EEA22010EDBCFEEFF020EDBCFD6
:10218000EEFF030EDBCFEEFF040EDBCFEEFFFD0E06
:10219000DBCFE9FFFE0EDBCFEAFF140EE926000ECF
:1021A000EA22EF98FD0EDBCFE9FFFE0EDBCFEAFF60
:1021B000090EE926000EEA22EFCF20F0216A226AFA
:1021C000236A99C01CF01D6A1E6A1F6AFD0EDBCFD0
:1021D000E9FFFE0EDBCFEAFF050EE926000EEA223C
:1021E000EECF18F0EECF19F0EECF1AF0EFCF1BF0D4
:1021F000020E185E000E195A1A5A1B5A18C006F021
:1022000019C007F01AC008F01BC009F01CC00BF081
:102210001DC00CF01EC00DF01FC00EF091EC3DF083
:10222000025000012024146E03502120156E04502A
:102230002220166E05502320176E0001945114269B
:10224000955115229651162297511722010E14C04E
:10225000DBFF020E15C0DBFF030E16C0DBFF040E12
:1022600017C0DBFFD950010FE96EDACFEAFF00019A
:10227000AA51EE1809E1AB51EE1806E1AC51EE1887
:1022800003E1AD51EE1800E113E0D950010FE96E02
:10229000DACFEAFFEECFE6FFEECFE6FFEECFE6FFC6
:1022A000EFCFE6FFA3EC36F0E552E552E552E552FA
:1022B000FD0EDBCFE9FFFE0EDBCFEAFF0A0EE926BB
:1022C000000EEA22EECF14F0EFCF15F0000E142628
:1022D000060E1522050E14C0DBFF060E15C0DBFF2F
:1022E000050EDBCFE9FF060EDBCFEAFFEF50DF6E16
:1022F000FD0EDBCFE9FFFE0EDBCFEAFF140EE92671
:10230000000EEA22EF88DF50146E156A14C0F3FF46
:1023100015C0F4FF00D0070EE15C02E2E16AE5526D
:10232000E16EE552E7CFD9FF1200D9CFE6FFE1CF4A
:10233000D9FF040EE1260001AE5103E0F368F46812
:1023400040D0FD0EDBCFDEFFDBCFDDFFDECFE9FFD0
:10235000DDCFEAFFEF5032E0FB0EDBCFE6FFFC0EF5
:10236000DBCFE6FFDFCFE9FFDF2A010EDBCFEAFF9D
:1023700001E3DB2AEFCF14F0156A14BE156814C010
:10238000E6FF15C0E6FFB1EC0CF0E552E552E55270
:10239000E552020EF3CFDBFF030EF4CFDBFFD95083
:1023A000020FE96EDACFEAFFFF0EEE1802E1FF0E30
:1023B000ED1803E1F368F46804D0C8D7F36AF46A4F
:1023C00000D0040EE15C02E2E16AE552E16EE55202
:1023D000E7CFD9FF1200D9CFE6FFE1CFD9FF040E36
:1023E000E1260001AE5103E0F368F46840D0FD0E31
:1023F000DBCFDEFFDBCFDDFFDECFE9FFDDCFEAFFA6
:10240000EF5032E0FB0EDBCFE6FFFC0EDBCFE6FF4A
:10241000DFCFE9FFDF2A010EDBCFEAFF01E3DB2A92
:10242000EFCF14F0156A14BE156814C0E6FF15C08E
:10243000E6FFB1EC0CF0E552E552E552E552020E32
:10244000F3CFDBFF030EF4CFDBFFD950020FE96EB1
:10245000DACFEAFFFF0EEE1802E1FF0EED1803E1FE
:10246000F368F46804D0C8D7F36AF46A00D0040EA5
:10247000E15C02E2E16AE552E16EE552E7CFD9FFA5
:102480001200D9CFE6FFE1CFD9FF040EE126FD0E01
:10249000DBCFDEFFDBCFDDFFF90EDBCFE6FFFA0E91
:1024A000DBCFE6FF03DDE552E552020EF3CFDBFFA3
:1024B000030EF4CFDBFFD950020FE96EDACFEAFF4B
:1024C000FF0EEE1802E1FF0EED1838E0FB0EDBCF39
:1024D00014F0FC0EDBCF15F0153404E214500108A3
:1024E000000E15542BE2DFCFE9FFDF2A010EDBCF10
:1024F000EAFF01E3DB2A020EDBCFEFFFFB0EDB0678
:10250000FC0E01E2DB06D950020FE96EDACFEAFFDA
:102510000A0EEE1801E1ED5001E110D0F90EDBCF0B
:10252000E6FFFA0EDBCFE6FFC1DCE552E552020E14
:10253000F3CFDBFF030EF4CFDBFFBDD7DFCFE9FF27
:10254000DF2A010EDBCFEAFF01E3DB2AEF6AD95075
:10255000020FE96EDACFEAFFFF0EEE1802E1FF0E7E
:10256000ED1804E1F36AF46A0CD00BD0FD0EDBCF5A
:1025700014F0FE0EDBCF15F014C0F3FF15C0F4FF0E
:1025800000D0040EE15C02E2E16AE552E16EE55240
:10259000E7CFD9FF1200D9CFE6FFE1CFD9FF060E72
:1025A000E126040EDB6A050EDB6A0001AE5103E092
:1025B000F368F46873D0FD0EDBCF08F0FE0EDBCFBE
:1025C00009F0020E08C0DBFF030E09C0DBFFD95083
:1025D000F90FE96EFF0EDA20EA6EEE50ED1053E0CF
:1025E000DE6ADD6ADECF14F0DDCF15F0FB0EDBCF47
:1025F00016F0FC0EDBCF17F015501718E8AE02D01E
:10260000173404D01650145C1750155831E2F70EE9
:10261000DBCFE6FFF80EDBCFE6FF020EDBCFE9FFF4
:10262000DB2A030EDBCFEAFF01E3DB2AEF50E66E85
:10263000E66AB1EC0CF0E552E552E552E552F3CF13
:1026400014F0F4CF15F00001141C01E1151C0BE18E
:10265000040EDBCF14F0050EDBCF15F014C0F3FF32
:1026600015C0F4FF1BD0DF2A010E01E3DB2ABAD725
:10267000040EDB2A050E01E3DB2AF90EDB06FA0E57
:1026800001E2DB06A4D7040EDBCF14F0050EDBCF8E
:1026900015F014C0F3FF15C0F4FF00D0060EE15C86
:1026A00002E2E16AE552E16EE552E7CFD9FF12009E
:1026B000D9CFE6FFE1CFD9FF080EE126060EDB6A8F
:1026C000070EDB6AFD0EDBCF08F0FE0EDBCF09F054
:1026D000040E08C0DBFF050E09C0DBFFD950F90F5F
:1026E000E96EFF0EDA20EA6EEE50ED1059E0DE6A78
:1026F000DD6ADECF14F0DDCF15F0FB0EDBCF16F078
:10270000FC0EDBCF17F015501718E8AE02D01734C7
:1027100004D01650145C1750155837E2F70EDBCF73
:10272000E6FFF80EDBCFE6FF56EC0FF0E552E55280
:10273000020EF3CFDBFF030EF4CFDBFFD950020F05
:10274000E96EDACFEAFFFF0EEE1802E1FF0EED1898
:102750000BE1060EDBCF14F0070EDBCF15F014C033
:10276000F3FF15C0F4FF27D0040EDBCFE9FFDB2A0F
:10277000050EDBCFEAFF01E3DB2A020EDBCFEFFF22
:10278000DF2A010E01E3DB2AB4D7060EDB2A070E8F
:1027900001E3DB2AF90EDB06FA0E01E2DB069ED727
:1027A000060EDBCF14F0070EDBCF15F014C0F3FFDD
:1027B00015C0F4FF00D0080EE15C02E2E16AE552C8
:1027C000E16EE552E7CFD9FF1200D9CFE6FFE1CFA6
:1027D000D9FF020EE1260001AE5104E0010EF36EB6
:1027E000F46A48D1FD0EDBCFE9FFFE0EDBCFEAFF36
:1027F000140EE926000EEA22EF50010B04E1010E4F
:10280000F36EF46A37D100018B511DE0E8680001D6
:10281000AA1908E1E868AB1905E1E868AC1902E11A
:10282000E868AD190EE0AAC0E6FFABC0E6FFACC099
:10283000E6FFADC0E6FF36EC38F0E552E552E55272
:10284000E55200018B6BFD0EDBCFE9FFFE0EDBCF07
:10285000EAFF140EE926000EEA22EF50800B01E198
:1028600005D1FD0EDBCFE9FFFE0EDBCFEAFFEECF99
:10287000E6FFEECFE6FFEECFE6FFEFCFE6FFA3ECFD
:1028800036F0E552E552E552E552FD0EDBCFE9FFA9
:10289000FE0EDBCFEAFF040EE926000EEA22EF501F
:1028A000146E156A050ED89014361536E804FBE14F
:1028B000000E1426060E1522120E1426000E1522E6
:1028C00014C0DEFF15C0DDFFDF2A010E01E3DB2AA5
:1028D000DF2A01E3DB2A020EDE26000EDD22DF2ADC
:1028E000010E01E3DB2ADF2A01E3DB2ADF2A01E311
:1028F000DB2ADF2A01E3DB2A020EDE26000EDD22C0
:10290000FD0EDBCFE9FFFE0EDBCFEAFF100EE9265E
:10291000000EEA22EECF14F0EECF15F0EECF16F057
:10292000EFCF17F01450E66EDFCFE9FFDF2A010E7C
:10293000DBCFEAFF01E3DB2AE552E750EF6E146AD2
:102940001568166A176AFD0EDBCFE9FFFE0EDBCFB6
:10295000EAFF100EE926000EEA22EE501416EE50A1
:102960001516EE501616EE501716080ED8901732A0
:10297000163215321432E806F9E1DFCFE9FFDF2A1B
:10298000010EDBCFEAFF01E3DB2A14C0EFFF146A7C
:10299000156A1668176AFD0EDBCFE9FFFE0EDBCF66
:1029A000EAFF100EE926000EEA22EE501416EE5051
:1029B0001516EE501616EE501716100ED890173248
:1029C000163215321432E806F9E1DFCFE9FFDF2ACB
:1029D000010EDBCFEAFF01E3DB2A14C0EFFF146A2C
:1029E000156A166A1768FD0EDBCFE9FFFE0EDBCF16
:1029F000EAFF100EE926000EEA22EE501416EE5001
:102A00001516EE501616EE501716180ED8901732EF
:102A1000163215321432E806F9E1DFCFE9FFDF2A7A
:102A2000010EDBCFEAFF01E3DB2A14C0EFFFFD0E4E
:102A3000DBCFE9FFFE0EDBCFEAFFEECFE6FFEECF06
:102A4000E6FFEECFE6FFEFCFE6FF36EC38F0E552DB
:102A5000E552E552E552FD0EDBCFE9FFFE0EDBCF7E
:102A6000EAFF140EE926000EEA22EF9E8B82F36A3B
:102A7000F46A00D0020EE15C02E2E16AE552E16E26
:102A8000E552E7CFD9FF1200D9CFE6FFE1CFD9FF5A
:102A9000FD0EDBCFE9FFFE0EDBCFEAFF140EE926C9
:102AA000000EEA22EF50010B04E1010EF36EF46A0E
:102AB0001FD0FD0EDBCFE6FFFE0EDBCFE6FF85DE8F
:102AC000E552E552FD0EDBCFE9FFFE0EDBCFEAFF5C
:102AD000140EE926000EEA22EF908B92000082B8D5
:102AE00003D0ACEC39F0FBD78B82F36AF46A00D0E8
:102AF000E552E7CFD9FF1200D9CFE6FFE1CFD9FFEA
:102B0000300EE126190EDB681A0EDB681B0EDB683F
:102B10001C0EDB680E01F05104E1010EF36EF46A45
:102B2000F3D20001AE5104E0010EF36EF46AECD270
:102B3000D9500D0FE66E000EDA20E66ED950050F63
:102B4000E66E000EDA20E66ED950210FE66E000E1A
:102B5000DA20E66ED9501D0FE66E000EDA20E66E22
:102B6000D950180FE66E000EDA20E66ED950100F1D
:102B7000E66E000EDA20E66EFD0EDBCFE6FFFE0EFF
:102B8000DBCFE6FF0EEC1AF0146E0E0EE15E145071
:102B9000140E06C0DBFF150E07C0DBFF160E08C0C3
:102BA000DBFF170E09C0DBFFD950140FE96EDACF37
:102BB000EAFFE868EE1808E1E868EE1805E1E86861
:102BC000EE1802E1E868EE1805E18B82010EF36E63
:102BD000F46A9AD2DF6A020EDF5C4EE2DF50160D15
:102BE000F3CFE9FFF4CFEAFFA80EE9260E0EEA22A2
:102BF000140EE926000EEA22EF50010B3BE01D0EF9
:102C0000DBCF14F01E0EDBCF15F01F0EDBCF16F05E
:102C1000200EDBCF17F0DF50160DF3CFE9FFF4CF16
:102C2000EAFFA80EE9260E0EEA22EE50141809E17A
:102C3000EE50151806E1EE50161803E1EE50171885
:102C400000E118E1DF50160DF3CFE9FFF4CFEAFF02
:102C5000A80EE9260E0EEA22040EE926000EEA224C
:102C6000EFCF18F0210EDB50185C04E1010EF36E7B
:102C7000F46A4AD2DF2AAFD7E50EF36E050EF3CF22
:102C8000DBFFE66AD950140FE66E000EDA20E66E1E
:102C9000D950100FE66E000EDA20E66ED950180FEC
:102CA000E66E000EDA20E66ED9500D0FE66E000ECD
:102CB000DA20E66ED950050FE66E000EDA20E66ED9
:102CC00010EC22F0146E0B0EE15E14500400D9508B
:102CD000140FE96EDACFEAFFEECFE6FFEECFE6FFA4
:102CE000EECFE6FFEFCFE6FF87EC29F0E552E552A5
:102CF000E552E552010E06C0DBFF020E07C0DBFF06
:102D0000030E08C0DBFF040E09C0DBFF2C0E8CC0D5
:102D1000DBFF2D0E8DC0DBFF2E0E8EC0DBFF2F0ED6
:102D20008FC0DBFF0001985115E0D4CE14F0D5CE52
:102D300015F0D89015321432D89015321432220E74
:102D400014C0DBFF230E15C0DBFF240EDB6A250E4B
:102D5000DB6A11D0D4CE14F0D5CE15F0D890153250
:102D60001432220E14C0DBFF230E15C0DBFF240E2D
:102D7000DB6A250EDB6A010EDBCF14F0020EDBCF1F
:102D800015F0030EDBCF16F0040EDBCF17F014C0E6
:102D900006F015C007F016C008F017C009F0220EA3
:102DA000DBCF0BF0230EDBCF0CF0240EDBCF0DF0CE
:102DB000250EDBCF0EF0C9EC3DF0260E06C0DBFF82
:102DC000270E07C0DBFF280E08C0DBFF290E09C055
:102DD000DBFFD9502C0FE96EDACFEAFF260EDB506D
:102DE000EE26270EDB50EE22280EDB50EE22290EB7
:102DF000DB50EE22D9502C0FE96EDACFEAFFEE500D
:102E00000001AA190CE1EE500001AB1908E1EE50E7
:102E10000001AC1904E1EE500001AD1900E101E040
:102E2000BFD0260EDBCF18F0270EDBCF19F0280E0F
:102E3000DBCF1AF0290EDBCF1BF018C006F019C04B
:102E400007F01AC008F01BC009F0220EDBCF0BF010
:102E5000230EDBCF0CF0240EDBCF0DF0250EDBCFE5
:102E60000EF091EC3DF002C014F003C015F004C068
:102E700016F005C017F0D950140FE96EDACFEAFF4B
:102E80001450EE5E1550EE5A1650EE5A1750EE5A88
:102E9000000198514EE0140EDBCF16F0150EDBCF7B
:102EA00017F0160EDBCF18F0170EDBCF19F0020E5D
:102EB0001F0B07E0D8901636173618361936E80675
:102EC000F9E1000E1624146E060E1720156E2A0E58
:102ED00014C0DBFF2B0E15C0DBFF2A0EDBCFE9FF92
:102EE000DB2A2B0EDBCFEAFF01E3DB2AEF6A2A0E97
:102EF000DBCFE9FFDB2A2B0EDBCFEAFF01E3DB2A86
:102F0000EF6A2A0EDBCFE9FFDB2A2B0EDBCFEAFFCD
:102F100001E3DB2AEF6AF00E146E2A0EDBCFE9FF25
:102F2000DB2A2B0EDBCFEAFF01E3DB2A1450EF167E
:102F300036D0140EDBCF16F0150EDBCF17F0160EC1
:102F4000DBCF18F0170EDBCF19F0010E1F0B07E0D7
:102F5000D8901636173618361936E806F9E1000EFD
:102F60001624146E060E1720156E2A0E14C0DBFFF1
:102F70002B0E15C0DBFF2A0EDBCFE9FFDB2A2B0E61
:102F8000DBCFEAFF01E3DB2AEF6A2A0EDBCFE9FFA2
:102F9000DB2A2B0EDBCFEAFF01E3DB2AEF6A17D037
:102FA000E66AE66AE66AE66AD950140FE96EDACF95
:102FB000EAFFEECFE6FFEECFE6FFEECFE6FFEFCF84
:102FC000E6FF6FEC2BF0146E080EE15E145000016A
:102FD00098511DE01468156816680F0E176ED950C9
:102FE000010FE96EDACFEAFFEE501416EE50151617
:102FF000EE501616EE501716F80E145CFF0E15580C
:10300000FF0E16580F0E175801E35CD00FD0D950A1
:10301000010FE96EDACFEAFFF80EEE5CFF0EEE5814
:10302000000EEE58000EEE5801E34CD0D950010FBF
:10303000E96EDACFEAFF020EEE5C000EEE58000EEB
:10304000EE58000EEE5801E23DD0D950010FE96E66
:10305000DACFEAFF140EEECFDBFF150EEECFDBFF6B
:10306000160EEECFDBFF170EEECFDBFF190EDBCF18
:1030700014F01A0EDBCF15F01B0EDBCF16F01C0E72
:10308000DBCF17F0D950140FE96EDACFEAFF1450F6
:10309000EE5C1550EE581650EE581750EE5811E2EF
:1030A000D950140FE96EDACFEAFF190EEECFDBFF2D
:1030B0001A0EEECFDBFF1B0EEECFDBFF1C0EEECFAA
:1030C000DBFF04D68B82D950190FE96EDACFEAFF05
:1030D00000019A51EE5C00019B51EE5800019C5199
:1030E000EE5800019D51EE580CE2190EDBCF9AF01C
:1030F0001A0EDBCF9BF01B0EDBCF9CF01C0EDBCF40
:103100009DF0F36AF46A00D0300EE15C02E2E16AFD
:10311000E552E16EE552E7CFD9FF1200D9CFE6FFC5
:10312000E1CFD9FF1A0EE1260B0EDB6A0C0EDB6A2B
:103130000D0EDB6A0E0EDB6A0E01F05104E1010E8A
:10314000F36EF46A05D10001AE5104E0010EF36E96
:10315000F46AFED0D950080FE66E000EDA20E66E53
:10316000D9CFE6FFDACFE6FFD950180FE66E000E92
:10317000DA20E66ED950140FE66E000EDA20E66E05
:10318000D950130FE66E000EDA20E66ED9500F0FFD
:10319000E66E000EDA20E66EFD0EDBCFE6FFFE0ED9
:1031A000DBCFE6FF3BD9146E0E0EE15E14500B0E22
:1031B00006C0DBFF0C0E07C0DBFF0D0E08C0DBFFF7
:1031C0000E0E09C0DBFFD9500B0FE96EDACFEAFF14
:1031D000E868EE1808E1E868EE1805E1E868EE181E
:1031E00002E1E868EE1805E18B82010EF36EF46AE5
:1031F000AFD0D9500B0FE96EDACFEAFFE868EE18CE
:1032000008E1E868EE1805E1E868EE1802E1E86810
:10321000EE185CE0190EDB6A020EF36E190EDBCFBE
:10322000F4FFF350F45C52E2190EDB50160DF3CFAD
:10323000E9FFF4CFEAFFA80EE9260E0EEA22140EEB
:10324000E926000EEA22EF50010B3DE0140EDBCF21
:1032500014F0150EDBCF15F0160EDBCF16F0170E9F
:10326000DBCF17F0190EDB50160DF3CFE9FFF4CFCB
:10327000EAFFA80EE9260E0EEA22EE50141809E124
:10328000EE50151806E1EE50161803E1EE5017182F
:1032900000E119E1190EDB50160DF3CFE9FFF4CF71
:1032A000EAFFA80EE9260E0EEA22040EE926000E19
:1032B000EA22EFCF18F0180EDB50185C04E1010E83
:1032C000F36EF46A45D0190EDB2AA6D7D950080F41
:1032D000E66E000EDA20E66ED9CFE6FFDACFE6FF23
:1032E000FB0EDBCFE6FFFC0EDBCFE6FFC7D9146E8B
:1032F000060EE15E1450000904E0010EF36EF46A5C
:1033000027D0020EE66ED9500B0FE66E000EDA20C3
:10331000E66ED9500F0FE66E000EDA20E66ED95039
:10332000130FE66E000EDA20E66ED950080FE66E37
:10333000000EDA20E66ED9CFE6FFDACFE6FF10EC1A
:1033400022F0146E0B0EE15E1450F36AF46A00D0A2
:103350001A0EE15C02E2E16AE552E16EE552E7CF66
:10336000D9FF1200D9CFE6FFE1CFD9FFFD0EDBCFA9
:10337000E9FFFE0EDBCFEAFF140EE926000EEA227B
:10338000EF9AFD0EDBCFE9FFFE0EDBCFEAFF140E56
:10339000E926000EEA22EF9CE552E7CFD9FF1200A2
:1033A000D9CFE6FFE1CFD9FFFD0EDBCFE9FFFE0E5F
:1033B000DBCFEAFF140EE926000EEA22EF50400BA5
:1033C00005E0010EF36EF46A04D003D0F36AF46AE8
:1033D00000D0E552E7CFD9FF1200D9CFE6FFE1CF09
:1033E000D9FFFD0EDBCFE9FFFE0EDBCFEAFF140EA7
:1033F000E926000EEA22EF50200B05E0010EF36EE5
:10340000F46A04D003D0F36AF46A00D0E552E7CF3F
:10341000D9FF12000E01F05100D01200D9CFE6FF03
:10342000E1CFD9FF120EE1260E01F05105E1066849
:1034300007680868096818D1D9500B0FE66E000EAE
:10344000DA20E66ED950030FE66E000EDA20E66E43
:10345000FD0EDBCFE6FFFE0EDBCFE6FF0FD9146ECD
:10346000060EE15E1450010EF36E020EF3CFDBFF89
:103470000400F50EDBCFE6FFF60EDBCFE6FFF70E1E
:10348000DBCFE6FFF80EDBCFE6FF020EDBCFE6FF79
:10349000D9500E0FE66E000EDA20E66EFB0EDBCF83
:1034A000E6FFFC0EDBCFE6FFF90EDBCFE6FFFA0E00
:1034B000DBCFE6FFF10EDBCFE6FFF20EDBCFE6FF60
:1034C000F30EDBCFE6FFF40EDBCFE6FF6EDA146E11
:1034D0000F0EE15E1450000906E18B820668076852
:1034E00008680968C1D0020EDB6ADE52010EDD6E8B
:1034F000F30EDBCFE9FFF40EDBCFEAFFEF5006E17E
:103500008B820668076808680968AED0F30EDBCFC7
:10351000E9FFF40EDBCFEAFFEF50E50802E1010E10
:10352000DB6ADF6A080EDF5C30E2D950030F146EED
:10353000DACF15F0DF500F011424E96E000E1520CC
:10354000EA6EEF503F081FE0DF50E76EF30EDBCF6F
:10355000E9FFF40EDBCFEAFFE750E926000EEA228E
:10356000EFCF16F0D950030F176EDACF18F0DF50F7
:103570000F011724E96E000E1820EA6EEF50165C5A
:1035800002E0010EDB6ADF2ACDD7DF6A030EDF5CC3
:1035900030E2D9500B0F146EDACF15F0DF500F0167
:1035A0001424E96E000E1520EA6EEF503F081FE06C
:1035B000DF50E76EF10EDBCFE9FFF20EDBCFEAFF63
:1035C000E750E926000EEA22EFCF16F0D9500B0F94
:1035D000176EDACF18F0DF500F011724E96E000ED6
:1035E0001820EA6EEF50165C02E0010EDB6ADF2A5B
:1035F000CDD7F90EDBCFE9FFFA0EDBCFEAFFEF50B4
:10360000080B02E0010EDB6AF90EDBCFE9FFFA0ED0
:10361000DBCFEAFFEF50100B02E0010EDB6AF90E80
:10362000DBCFE9FFFA0EDBCFEAFFEF50020B02E03F
:10363000010EDB6A010EDB5016E08B820E0EDBCF33
:1036400014F00F0EDBCF15F0100EDBCF16F0110EBD
:10365000DBCF17F014C006F015C007F016C008F055
:1036600017C009F001D004D7120EE15C02E2E16A52
:10367000E552E16EE552E7CFD9FF1200D9CFE6FF60
:10368000E1CFD9FF040EE126020EDB6ADE52010E05
:10369000DD6E030EDB6ADF6A080EDF5C73E2FD0E8F
:1036A000DBCFE9FFFE0EDBCFEAFFEF503F0809E07A
:1036B000FD0EDBCFE9FFFE0EDBCFEAFFEF502A085D
:1036C00005E1010EF36E020EF3CFDBFFFD0EDBCF43
:1036D000E9FFFE0EDBCFEAFFEF502A0805E1010EFD
:1036E000F36E030EF3CFDBFFFD0EDBCFE9FFFE0E23
:1036F000DBCFEAFFEF502E0802E1010EDB6A030E7A
:10370000DB5018E0FB0EDBCFE9FFDB2AFC0EDBCF42
:10371000EAFF01E3DB2A3F0EEF6E010EDB5009E00A
:10372000FD0EDBCFE9FFDB2AFE0EDBCFEAFF01E374
:10373000DB2A26D0010EDB5018E0FD0EDBCFE9FFBF
:10374000DB2AFE0EDBCFEAFF01E3DB2AEF50E66E59
:10375000FB0EDBCFE9FFDB2AFC0EDBCFEAFF01E348
:10376000DB2AE552E750EF6E0BD0FB0EDBCFE9FF13
:10377000DB2AFC0EDBCFEAFF01E3DB2A200EEF6E33
:10378000DF2A8AD7FD0EDBCFE9FFDB2AFE0EDBCF77
:10379000EAFF01E3DB2ADE52010EDD6E030EDB6A77
:1037A000DF6A030EDF5C72E2FD0EDBCFE9FFFE0E87
:1037B000DBCFEAFFEF503F0809E0FD0EDBCFE9FF6A
:1037C000FE0EDBCFEAFFEF502A0805E1010EF36E93
:1037D000020EF3CFDBFFFD0EDBCFE9FFFE0EDBCFEA
:1037E000EAFFEF502A0805E1010EF36E030EF3CF56
:1037F000DBFFFD0EDBCFE9FFFE0EDBCFEAFFEF5074
:1038000002E1010EDB6A030EDB5018E0F90EDBCF9C
:10381000E9FFDB2AFA0EDBCFEAFF01E3DB2A3F0EEA
:10382000EF6E010EDB5009E0FD0EDBCFE9FFDB2A76
:10383000FE0EDBCFEAFF01E3DB2A26D0010EDB50D0
:1038400018E0FD0EDBCFE9FFDB2AFE0EDBCFEAFF3F
:1038500001E3DB2AEF50E66EF90EDBCFE9FFDB2A4E
:10386000FA0EDBCFEAFF01E3DB2AE552E750EF6E09
:103870000BD0F90EDBCFE9FFDB2AFA0EDBCFEAFF34
:1038800001E3DB2A200EEF6EDF2A8BD7D950FB0F26
:10389000E96EFF0EDA20EA6E080EEE5E000EED5ABB
:1038A000D950F90FE96EFF0EDA20EA6E030EEE5ED4
:1038B000000EED5ADF6A080EDF5C32E2DF50E76E81
:1038C000FB0EDBCFE9FFFC0EDBCFEAFFE750E9267A
:1038D000000EEA22EFCF14F0610E145C1FE3DF50FC
:1038E000E76EFB0EDBCFE9FFFC0EDBCFEAFFE75014
:1038F000E926000EEA22EF507A0810E3200E146E3B
:10390000DF50E76EFB0EDBCFE9FFFC0EDBCFEAFFFB
:10391000E750E926000EEA221450EF5EDF2ACBD7EB
:10392000DF6A030EDF5C32E2DF50E76EF90EDBCFB9
:10393000E9FFFA0EDBCFEAFFE750E926000EEA22A4
:10394000EFCF14F0610E145C1FE3DF50E76EF90E49
:10395000DBCFE9FFFA0EDBCFEAFFE750E926000EE6
:10396000EA22EF507A0810E3200E146EDF50E76E63
:10397000F90EDBCFE9FFFA0EDBCFEAFFE750E926CD
:10398000000EEA221450EF5EDF2ACBD7020EDB5086
:10399000146E040EE15C03E200D0E16AE552E16ED0
:1039A0001450E552E7CFD9FF1200D9CFE6FFE1CF9F
:1039B000D9FF090EE126F40EDB505FE000019851BB
:1039C00049E099C018F0196A1A6A1B6A90C014F08D
:1039D00091C015F092C016F093C017F0020E145E5D
:1039E000000E155A165A175A14C006F015C007F0E3
:1039F00016C008F017C009F018C00BF019C00CF081
:103A00001AC00DF01BC00EF091EC3DF00001945176
:103A100002240001A36F0001955103200001A46F4F
:103A20000001965104200001A56F00019751052067
:103A30000001A66FA307000EA45BA55BA65B90C068
:103A4000D7FE91C0D8FE92C0D9FE93C0DAFE99C0CD
:103A5000D6FE10D090C0A3F091C0A4F092C0A5F003
:103A600093C0A6F00001A307000EA45BA55BA65BB4
:103A700089C0D6FE0001A769A869D4CE14F0D5CEBE
:103A800015F0200E145E000E155A050ED890153252
:103A90001432E804FBE100011450A75D1550A85949
:103AA00001E282D10001A32B000EA423A523A623AB
:103AB0000E01D65101E066D10001985101E15FD1BC
:103AC000000199050E01D66FD7CEE6FFD8CEE6FFEE
:103AD000D9CEE6FFDACEE6FF87EC29F0E552E552D3
:103AE000E552E552030E06C0DBFF040E07C0DBFF04
:103AF000050E08C0DBFF060E09C0DBFF1468156861
:103B000016680F0E176ED950030FE96EDACFEAFF71
:103B1000EE501416EE501516EE501616EE501716FF
:103B2000F80E145CFF0E1558FF0E16580F0E17589E
:103B300001E2DFD00AEC27F0030E06C0DBFF040E23
:103B400007C0DBFF050E08C0DBFF060E09C0DBFF68
:103B5000D950030FE96EDACFEAFFE868EE1808E102
:103B6000E868EE1805E1E868EE1802E10F0EEE18BD
:103B700004E18B82000E04EF22F0D950030FE96EAE
:103B8000DACFEAFFEECFE6FFEECFE6FFEECFE6FFBD
:103B9000EFCFE6FFD7CEE6FFD8CEE6FFD9CEE6FFE1
:103BA000DACEE6FF6FEC2BF0146E080EE15E1450D7
:103BB000E668E668E6680F0EE66ED950030FE96E18
:103BC000DACFEAFFEECFE6FFEECFE6FFEECFE6FF7D
:103BD000EFCFE6FF6FEC2BF0146E080EE15E145091
:103BE000030EDBCFD7FE040EDBCFD8FE050EDBCFF6
:103BF000D9FE060EDBCFDAFED950070FE96EDACF19
:103C0000EAFF000EEE6E060EED6E010EDB6A020E8E
:103C1000DB6A010EDBCF14F0020EDBCF15F0000ED5
:103C2000145C020E155810E2070EDBCFE9FFDB2A09
:103C3000080EDBCFEAFF01E3DB2AEF6A010EDB2A85
:103C4000020E01E3DB2AE5D7DF6A00019951DF5C50
:103C50004FE299C01CF01D6A1E6A1F6AD7CE18F089
:103C6000D8CE19F0D9CE1AF0DACE1BF0020E185EBB
:103C7000000E195A1A5A1B5A18C006F019C007F03C
:103C80001AC008F01BC009F01CC00BF01DC00CF0DE
:103C90001EC00DF01FC00EF091EC3DF000019451DC
:103CA0000224146E95510320156E96510420166E51
:103CB00097510520176EDFCF20F0216A226A236A10
:103CC000205014262150152222501622235017224C
:103CD00014C0E6FF15C0E6FF16C0E6FF17C0E6FFFA
:103CE00036EC38F0E552E552E552E552DF2AADD721
:103CF0000CD0030EDBCFD7FE040EDBCFD8FE050EB3
:103D0000DBCFD9FE060EDBCFDAFE99C018F0196AB8
:103D10001A6A1B6AD7CE14F0D8CE15F0D9CE16F099
:103D2000DACE17F0020E145E000E155A165A175A04
:103D300014C006F015C007F016C008F017C009F04F
:103D400018C00BF019C00CF01AC00DF01BC00EF01B
:103D500091EC3DF00001945102240001A36F000199
:103D6000955103200001A46F000196510420000129
:103D7000A56F0001975105200001A66F04D08B822A
:103D8000000E42D3D607A3C0E6FFA4C0E6FFA5C03D
:103D9000E6FFA6C0E6FFA3EC36F0E552E552E55299
:103DA000E5520001A769A869A72B000EA823A7C0A8
:103DB00014F0A8C015F0050ED89014361536E80496
:103DC000FBE1000E1426060E1522070E14C0DBFFC1
:103DD000080E15C0DBFF070EDBCFE9FFDB2A080E5C
:103DE000DBCFEAFF01E3DB2AEF50E66EFD0EDBCF0F
:103DF000E9FFFE0EDBCFEAFFE552E750EF6E070E5C
:103E0000DBCFE9FFDB2A080EDBCFEAFF01E3DB2A89
:103E1000EF50E66E010EE76EFD0EDBCFE9FFFE0E02
:103E2000DBCFEAFFE750E926000EEA22E552E75031
:103E3000EF6E070EDBCFE9FFDB2A080EDBCFEAFFD0
:103E400001E3DB2AEF50E66E020EE76EFD0EDBCFDC
:103E5000E9FFFE0EDBCFEAFFE750E926000EEA227B
:103E6000E552E750EF6E070EDBCFE9FFDB2A080EC5
:103E7000DBCFEAFF01E3DB2AEF50E66E030EE76ECD
:103E8000FD0EDBCFE9FFFE0EDBCFEAFFE750E926B0
:103E9000000EEA22E552E750EF6E070EDBCFE9FF96
:103EA000DB2A080EDBCFEAFF01E3DB2AEF50E66EE8
:103EB000040EE76EFD0EDBCFE9FFFE0EDBCFEAFF5F
:103EC000E750E926000EEA22E552E750EF6E070EB2
:103ED000DBCFE9FFDB2A080EDBCFEAFF01E3DB2AB9
:103EE000EF50E66E050EE76EFD0EDBCFE9FFFE0E2E
:103EF000DBCFEAFFE750E926000EEA22E552E75061
:103F0000EF6E070EDBCFE9FFDB2A080EDBCFEAFFFF
:103F100001E3DB2AEF50E66E060EE76EFD0EDBCF07
:103F2000E9FFFE0EDBCFEAFFE750E926000EEA22AA
:103F3000E552E750EF6E070EDBCFE9FFDB2A080EF4
:103F4000DBCFEAFF01E3DB2AEF50E66E070EE76EF8
:103F5000FD0EDBCFE9FFFE0EDBCFEAFFE750E926DF
:103F6000000EEA22E552E750EF6EDF6A080EDF5CD2
:103F700032E2DF50E76EFD0EDBCFE9FFFE0EDBCF56
:103F8000EAFFE750E926000EEA22EFCF14F0610EB7
:103F9000145C1FE3DF50E76EFD0EDBCFE9FFFE0E82
:103FA000DBCFEAFFE750E926000EEA22EF507A085D
:103FB00010E3200E146EDF50E76EFD0EDBCFE9FF3D
:103FC000FE0EDBCFEAFFE750E926000EEA2214508E
:103FD000EF5EDF2ACBD7070EDBCFE9FFDB2A080E27
:103FE000DBCFEAFF01E3DB2AEF50E66EFB0EDBCF0F
:103FF000E9FFFC0EDBCFEAFFE552E750EF6E070E5C
:10400000DBCFE9FFDB2A080EDBCFEAFF01E3DB2A87
:10401000EF50E66E010EE76EFB0EDBCFE9FFFC0E04
:10402000DBCFEAFFE750E926000EEA22E552E7502F
:10403000EF6E070EDBCFE9FFDB2A080EDBCFEAFFCE
:1040400001E3DB2AEF50E66E020EE76EFB0EDBCFDC
:10405000E9FFFC0EDBCFEAFFE750E926000EEA227B
:10406000E552E750EF6EDF6A030EDF5C32E2DF50AD
:10407000E76EFB0EDBCFE9FFFC0EDBCFEAFFE7507C
:10408000E926000EEA22EFCF14F0610E145C1FE364
:10409000DF50E76EFB0EDBCFE9FFFC0EDBCFEAFF64
:1040A000E750E926000EEA22EF507A0810E3200ECE
:1040B000146EDF50E76EFB0EDBCFE9FFFC0EDBCFAB
:1040C000EAFFE750E926000EEA221450EF5EDF2AED
:1040D000CBD7070EDBCFE9FFDB2A080EDBCFEAFFE9
:1040E00001E3DB2AEF50E66EF90EDBCFE9FFFA0EB3
:1040F000DBCFEAFFE552E750EF6E070EDB2A080E32
:1041000001E3DB2A070EDB2A080E01E3DB2A070E98
:10411000DB2A080E01E3DB2A070EDB2A080E01E387
:10412000DB2A070EDB2A080E01E3DB2A070EDB2A57
:10413000080E01E3DB2A070EDB2A080E01E3DB2A67
:10414000070EDB2A080E01E3DB2A000198514DE03F
:10415000070EDBCFE9FFDB2A080EDBCFEAFF01E326
:10416000DB2AEFCF14F0156A166A176A100E1F0BC0
:1041700007E0D8901436153616361736E806F9E1FA
:10418000F50EDBCFE9FFF60EDBCFEAFF14C0EEFF42
:1041900015C0EEFF16C0EEFF17C0EEFF070EDBCF17
:1041A000E9FFDB2A080EDBCFEAFF01E3DB2AEFCFD2
:1041B00014F0156A166A176A180E1F0B07E0D890DC
:1041C0001436153616361736E806F9E1F50EDBCF4C
:1041D000E9FFF60EDBCFEAFF1450EE261550EE2273
:1041E0001650EE221750EE2214D0070EDB2A080ECE
:1041F00001E3DB2A070EDB2A080E01E3DB2AF50EBA
:10420000DBCFE9FFF60EDBCFEAFFEE6AEE6AEE6A7D
:10421000EE6A070EDB2A080E01E3DB2A070EDB2A13
:10422000080E01E3DB2A070EDB2A080E01E3DB2A76
:10423000070EDB2A080E01E3DB2A070EDBCFE9FFBE
:10424000DB2A080EDBCFEAFF01E3DB2AEFCF14F015
:10425000156A166A176AF50EDBCFE9FFF60EDBCF9B
:10426000EAFF1450EE261550EE221650EE2217509B
:10427000EE22070EDBCFE9FFDB2A080EDBCFEAFFD9
:1042800001E3DB2AEFCF14F0156A166A176A1F0BD9
:1042900007E0D8901436153616361736E806F9E1D9
:1042A000F50EDBCFE9FFF60EDBCFEAFF1450EE266A
:1042B0001550EE221650EE221750EE22070EDBCFDD
:1042C000E9FFDB2A080EDBCFEAFF01E3DB2AEFCFB1
:1042D00014F0156A166A176AF70EDBCFE9FFF80EBD
:1042E000DBCFEAFF14C0EEFF15C0EEFF16C0EEFFF5
:1042F00017C0EEFF070EDBCFE9FFDB2A080EDBCF8E
:10430000EAFF01E3DB2AEFCF14F0156A166A176A99
:104310001F0B07E0D8901436153616361736E80608
:10432000F9E1F70EDBCFE9FFF80EDBCFEAFF14501F
:10433000EE261550EE221650EE221750EE22070EF2
:10434000DBCFE9FFDB2A080EDBCFEAFF01E3DB2A44
:10435000EFCF14F0156A166A176A100E1F0B07E0EC
:10436000D8901436153616361736E806F9E1F70EEA
:10437000DBCFE9FFF80EDBCFEAFF1450EE26155035
:10438000EE221650EE221750EE22070EDBCFE9FF89
:10439000DB2A080EDBCFEAFF01E3DB2AEFCF14F0C4
:1043A000156A166A176A180E1F0B07E0D8901436A4
:1043B000153616361736E806F9E1F70EDBCFE9FFBA
:1043C000F80EDBCFEAFF1450EE261550EE22165001
:1043D000EE221750EE22F20EDBCFE9FFF30EDBCF19
:1043E000EAFFA3C0EEFFA4C0EEFFA5C0EEFFA6C08B
:1043F000EEFFF00EDBCFE9FFF10EDBCFEAFFA7C047
:10440000EFFF8B82010E00D0146E090EE15C02E218
:10441000E16AE552E16E1450E552E7CFD9FF120090
:10442000D9CFE6FFE1CFD9FF020EE126A7C014F0F5
:10443000A8C015F0050ED89014361536E804FBE137
:10444000000E1426060E152214C0DEFF15C0DDFF77
:10445000FD0EDBCFE9FFFE0EDBCFEAFFEF50E66E8D
:10446000DFCFE9FFDF2A010EDBCFEAFF01E3DB2A22
:10447000E552E750EF6E010EE76EFD0EDBCFE9FF70
:10448000FE0EDBCFEAFFE750E926000EEA22EF50EE
:10449000E66EDFCFE9FFDF2A010EDBCFEAFF01E3A3
:1044A000DB2AE552E750EF6E020EE76EFD0EDBCF22
:1044B000E9FFFE0EDBCFEAFFE750E926000EEA2215
:1044C000EF50E66EDFCFE9FFDF2A010EDBCFEAFF18
:1044D00001E3DB2AE552E750EF6E030EE76EFD0EB7
:1044E000DBCFE9FFFE0EDBCFEAFFE750E926000E47
:1044F000EA22EF50E66EDFCFE9FFDF2A010EDBCFC5
:10450000EAFF01E3DB2AE552E750EF6E040EE76EA7
:10451000FD0EDBCFE9FFFE0EDBCFEAFFE750E92619
:10452000000EEA22EF50E66EDFCFE9FFDF2A010E30
:10453000DBCFEAFF01E3DB2AE552E750EF6E050E21
:10454000E76EFD0EDBCFE9FFFE0EDBCFEAFFE750A3
:10455000E926000EEA22EF50E66EDFCFE9FFDF2A00
:10456000010EDBCFEAFF01E3DB2AE552E750EF6EF5
:10457000060EE76EFD0EDBCFE9FFFE0EDBCFEAFF96
:10458000E750E926000EEA22EF50E66EDFCFE9FFA2
:10459000DF2A010EDBCFEAFF01E3DB2AE552E75019
:1045A000EF6E070EE76EFD0EDBCFE9FFFE0EDBCFF1
:1045B000EAFFE750E926000EEA22EF50E66EDFCF71
:1045C000E9FFDF2A010EDBCFEAFF01E3DB2AE55238
:1045D000E750EF6EFB0EDBCFE9FFFC0EDBCFEAFF0F
:1045E000EF50E66EDFCFE9FFDF2A010EDBCFEAFFF7
:1045F00001E3DB2AE552E750EF6E010EE76EFB0E9A
:10460000DBCFE9FFFC0EDBCFEAFFE750E926000E27
:10461000EA22EF50E66EDFCFE9FFDF2A010EDBCFA3
:10462000EAFF01E3DB2AE552E750EF6E020EE76E88
:10463000FB0EDBCFE9FFFC0EDBCFEAFFE750E926FC
:10464000000EEA22EF50E66EDFCFE9FFDF2A010E0F
:10465000DBCFEAFF01E3DB2AE552E750EF6EF90E0C
:10466000DBCFE9FFFA0EDBCFEAFFEF50E66EDFCFDC
:10467000E9FFDF2A010EDBCFEAFF01E3DB2AE55287
:10468000E750EF6EDFCFE9FFDF2A010EDBCFEAFF55
:1046900001E3DB2AEF6AF40EDBA00AD0DFCFE9FFEB
:1046A000DF2A010EDBCFEAFF01E3DB2AEF6A04D049
:1046B000DF2A010E01E3DB2AF40EDBA012D0DFCFEC
:1046C000E9FFDF2A010EDBCFEAFF01E3DB2AEF6A15
:1046D000DFCFE9FFDF2ADBCFEAFF01E3DB2AEF6A66
:1046E00007D0DF2A010E01E3DB2ADF2A01E3DB2A00
:1046F000F40EDBA015D0DFCFE9FFDF2A010EDBCF00
:10470000EAFF01E3DB2A210EEF6EDFCFE9FFDF2AAC
:10471000010EDBCFEAFF01E3DB2A280EEF6E07D0A4
:10472000DF2A010E01E3DB2ADF2A01E3DB2AF40E94
:10473000DBA215D0DFCFE9FFDF2A010EDBCFEAFFD6
:1047400001E3DB2A210EEF6EDFCFE9FFDF2A010E46
:10475000DBCFEAFF01E3DB2A280EEF6E07D0DF2A6A
:10476000010E01E3DB2ADF2A01E3DB2AF50EDBCFB2
:10477000E9FFF60EDBCFEAFFEECF14F0EECF15F037
:10478000EECF16F0EFCF17F0100ED890173216328A
:1047900015321432E806F9E1DFCFE9FFDF2A010E16
:1047A000DBCFEAFF01E3DB2A14C0EFFFF50EDBCF1E
:1047B000E9FFF60EDBCFEAFFEECF14F0EECF15F0F7
:1047C000EECF16F0EFCF17F0180ED8901732163242
:1047D00015321432E806F9E1DFCFE9FFDF2A010ED6
:1047E000DBCFEAFF01E3DB2A14C0EFFFF40EDBA40A
:1047F00012D0DFCFE9FFDF2A010EDBCFEAFF01E3B2
:10480000DB2AEF6ADFCFE9FFDF2ADBCFEAFF01E334
:10481000DB2AEF6A07D0DF2A010E01E3DB2ADF2A59
:1048200001E3DB2AF40EDBA415D0DFCFE9FFDF2A9A
:10483000010EDBCFEAFF01E3DB2A210EEF6EDFCFB3
:10484000E9FFDF2A010EDBCFEAFF01E3DB2A280EB6
:10485000EF6E07D0DF2A010E01E3DB2ADF2A01E336
:10486000DB2AF50EDBCFE9FFF60EDBCFEAFFEF50D8
:10487000E66EDFCFE9FFDF2A010EDBCFEAFF01E3BF
:10488000DB2AE552E750EF6EF50EDBCFE9FFF60EBF
:10489000DBCFEAFFEECF14F0EECF15F0EECF16F03F
:1048A000EFCF17F0080ED8901732163215321432A7
:1048B000E806F9E1DFCFE9FFDF2A010EDBCFEAFFEF
:1048C00001E3DB2A14C0EFFFF70EDBCFE9FFF80EA0
:1048D000DBCFEAFFEF50E66EDFCFE9FFDF2A010E04
:1048E000DBCFEAFF01E3DB2AE552E750EF6EF70E7C
:1048F000DBCFE9FFF80EDBCFEAFFEECF14F0EECF0F
:1049000015F0EECF16F0EFCF17F0080ED890173253
:10491000163215321432E806F9E1DFCFE9FFDF2A5B
:10492000010EDBCFEAFF01E3DB2A14C0EFFFF70E35
:10493000DBCFE9FFF80EDBCFEAFFEECF14F0EECFCE
:1049400015F0EECF16F0EFCF17F0100ED89017320B
:10495000163215321432E806F9E1DFCFE9FFDF2A1B
:10496000010EDBCFEAFF01E3DB2A14C0EFFFF70EF5
:10497000DBCFE9FFF80EDBCFEAFFEECF14F0EECF8E
:1049800015F0EECF16F0EFCF17F0180ED8901732C3
:10499000163215321432E806F9E1DFCFE9FFDF2ADB
:1049A000010EDBCFEAFF01E3DB2A14C0EFFFA3C057
:1049B000E6FFA4C0E6FFA5C0E6FFA6C0E6FF36EC12
:1049C00038F0E552E552E552E5528B82020EE15C89
:1049D00002E2E16AE552E16EE552E7CFD9FF12004B
:1049E000D9CFE6FFE1CFD9FF060EE126FD0EDBCFE2
:1049F000E9FFFE0EDBCFEAFF140EE926000EEA22E5
:104A0000EF50010B06E1010E066E076A086A096A9B
:104A1000DBD0FD0EDBCFE9FFFE0EDBCFEAFFEECFF2
:104A2000E6FFEECFE6FFEECFE6FFEFCFE6FFA3EC2B
:104A300036F0E552E552E552E552FD0EDBCFE9FFD7
:104A4000FE0EDBCFEAFF040EE926000EEA22EF504D
:104A5000146E156A050ED89014361536E804FBE17D
:104A6000000E1426060E1522140E1426000E152212
:104A7000040E14C0DBFF050E15C0DBFF00019851CA
:104A80004FE0040EDBCFE9FFDB2A050EDBCFEAFFA8
:104A900001E3DB2AEFCF14F0156A166A176A100ECD
:104AA0001F0B07E0D8901436153616361736E80671
:104AB000F9E114C0DFFF010E15C0DBFF020E16C0C6
:104AC000DBFF030E17C0DBFF040EDBCFE9FFDB2AA1
:104AD000050EDBCFEAFF01E3DB2AEFCF14F0156A06
:104AE000166A176A180E1F0B07E0D8901436153691
:104AF00016361736E806F9E11450DE261550DE2288
:104B00001650DE221750DD22DD52DD52D950040F3F
:104B1000E96EDACFEAFF040EEE26000EED220FD08A
:104B2000DE6ADE6ADE6ADD6ADD52DD52D950040FCC
:104B3000E96EDACFEAFF060EEE26000EED22040E35
:104B4000DBCFE9FFDB2A050EDBCFEAFF01E3DB2A3F
:104B5000EFCF14F0156A166A176A1450DE26155046
:104B6000DE221650DE221750DD22DD52DD52040E09
:104B7000DBCFE9FFDB2A050EDBCFEAFF01E3DB2A0F
:104B8000EFCF14F0156A166A176A080E1F0B07E0BC
:104B9000D8901436153616361736E806F9E1145053
:104BA000DE261550DE221650DE221750DD22DD52A1
:104BB000DD52DECF06F0DECF07F0DECF08F0DDCF2E
:104BC00009F0DD52DD5200D0060EE15C02E2E16A3E
:104BD000E552E16EE552E7CFD9FF1200D9CFE6FFEB
:104BE000E1CFD9FF240EE1260E01F05102E1000EC3
:104BF00005D1D9500C0FE66E000EDA20E66ED950C2
:104C0000040FE66E000EDA20E66EFD0EDBCFE6FF47
:104C1000FE0EDBCFE6FF3EEC1BF0146E060EE15EEF
:104C20001450000902E0000EE9D0F4D806C014F0D8
:104C300007C015F008C016F009C017F0FB0EDBCF57
:104C4000E9FFFC0EDBCFEAFF14C0EEFF15C0EEFF5C
:104C500016C0EEFF17C0EEFFFB0EDBCFE9FFFC0E28
:104C6000DBCFEAFFE868EE1808E1E868EE1805E136
:104C7000E868EE1802E1E868EE1803E18B82000EA6
:104C8000BDD0F70EDBCFE6FFF80EDBCFE6FFF90E67
:104C9000DBCFE6FFFA0EDBCFE6FF010EE66ED95062
:104CA0001F0FE66E000EDA20E66ED9CFE6FFDACFF0
:104CB000E6FFD9501A0FE66E000EDA20E66ED950E4
:104CC000170FE66E000EDA20E66ED9500F0FE66E73
:104CD000000EDA20E66ED5EC1CF0146E0F0EE15ECD
:104CE0001450000903E18B82000E88D00F0EDB50B8
:104CF000E50838E00F0EDB5035E0F70EDBCFE6FFBE
:104D0000F80EDBCFE6FFF90EDBCFE6FFFA0EDBCFC6
:104D1000E6FFE66AD9501F0FE66E000EDA20E66E57
:104D2000D9CFE6FFDACFE6FFD9501A0FE66E000EB4
:104D3000DA20E66ED950170FE66E000EDA20E66E26
:104D4000D9500F0FE66E000EDA20E66ED5EC1CF09F
:104D5000146E0F0EE15E1450000903E18B82000E09
:104D60004DD0C4D71B0EDB6A1C0EDB6A1D0EDB6A3E
:104D70001E0EDB6A230EDB6A070EE66EFB0EDBCF30
:104D8000E6FFFC0EDBCFE6FFD9501B0FE66E000EF0
:104D9000DA20E66ED950230FE66E000EDA20E66EBA
:104DA000D9500C0FE66E000EDA20E66ED950040FD3
:104DB000E66E000EDA20E66E10EC22F0146E0B0E9A
:104DC000E15E1450E668E668E6680F0EE66EFB0EDC
:104DD000DBCFE9FFFC0EDBCFEAFFEECFE6FFEECF45
:104DE000E6FFEECFE6FFEFCFE6FF6FEC2BF0146EA1
:104DF000080EE15E14508B82010E00D0146E240E5A
:104E0000E15C02E2E16AE552E16E1450E552E7CF5F
:104E1000D9FF1200D9CFE6FFE1CFD9FF1C0EE12662
:104E2000060E8CC0DBFF070E8DC0DBFF080E8EC0A8
:104E3000DBFF090E8FC0DBFF0001985115E0D4CED7
:104E400014F0D5CE15F0D89015321432D890153212
:104E50001432120E14C0DBFF130E15C0DBFF140E4C
:104E6000DB6A150EDB6A11D0D4CE14F0D5CE15F066
:104E7000D89015321432120E14C0DBFF130E15C079
:104E8000DBFF140EDB6A150EDB6A9AC006F09BC0CE
:104E900007F09CC008F09DC009F0120EDBCF0BF0AC
:104EA000130EDBCF0CF0140EDBCF0DF0150EDBCFA5
:104EB0000EF0C9EC3DF00A0E06C0DBFF0B0E07C07A
:104EC000DBFF0C0E08C0DBFF0D0E09C0DBFFD95065
:104ED000060FE96EDACFEAFF0A0EDB50EE260B0E64
:104EE000DB50EE220C0EDB50EE220D0EDB50EE22DC
:104EF0000A0EDBCF14F00B0EDBCF15F00C0EDBCF60
:104F000016F00D0EDBCF17F014C006F015C007F039
:104F100016C008F017C009F0120EDBCF0BF0130E0D
:104F2000DBCF0CF0140EDBCF0DF0150EDBCF0EF047
:104F300091EC3DF0160E02C0DBFF170E03C0DBFF45
:104F4000180E04C0DBFF190E05C0DBFFD950060F99
:104F5000E96EDACFEAFF00018C51EE5C146E0001BD
:104F60008D51EE58156E00018E51EE58166E0001EF
:104F70008F51EE58176E0A0E14C0DBFF0B0E15C0D2
:104F8000DBFF0C0E16C0DBFF0D0E17C0DBFF9EC053
:104F900014F09FC015F0A0C016F0A1C017F01406C1
:104FA000000E155A000E165A000E175AD9500A0F45
:104FB000E96EDACFEAFF1450EE5C1550EE58165049
:104FC000EE581750EE5801E372D10400D950060F85
:104FD000E96EDACFEAFFEECFE6FFEECFE6FFEECFE7
:104FE000E6FFEFCFE6FFA3EC36F0E552E552E552DF
:104FF000E552D9501A0FE96EDACFEAFF000EEE6ED5
:10500000060EED6E0E0EDB6A0F0EDB6A100EDB6A0B
:10501000110EDB6A120EDBCF14F0130EDBCF15F08E
:10502000140EDBCF16F0150EDBCF17F0D9500E0F94
:10503000E96EDACFEAFF1450EE5C1550EE581650C8
:10504000EE581750EE5801E31DD10001985101E1CF
:10505000A0D01A0EDBCFE9FFDB2A1B0EDBCFEAFF65
:1050600001E3DB2AEFCF14F0020E14C0DBFF030EC6
:10507000DB6A040EDB6A050EDB6A1A0EDBCFE9FF82
:10508000DB2A1B0EDBCFEAFF01E3DB2AEFCF14F0B4
:10509000156A166A176A080E1F0B07E0D8901436B7
:1050A000153616361736E806F9E1D950020FE96EC3
:1050B000DACFEAFF1450EE121550EE121650EE122F
:1050C0001750EE121A0EDBCFE9FFDB2A1B0EDBCFE7
:1050D000EAFF01E3DB2AEFCF14F0156A166A176ABC
:1050E000100E1F0B07E0D8901436153616361736FB
:1050F000E806F9E1D950020FE96EDACFEAFF145061
:10510000EE121550EE121650EE121750EE121A0E45
:10511000DBCFE9FFDB2A1B0EDBCFEAFF01E3DB2A53
:10512000EFCF14F0156A166A176A180E1F0B07E006
:10513000D8901436153616361736E806F9E1D950E8
:10514000020FE96EDACFEAFF1450EE121550EE129C
:105150001650EE121750EE12D950020FE96EDACF48
:10516000EAFFEE52EE52EE520F0EEE16020EDBCFBB
:1051700014F0030EDBCF15F0040EDBCF16F0050E96
:10518000DBCF17F0145015101610171001E194D052
:105190003AD01A0EDBCFE9FFDB2A1B0EDBCFEAFF8A
:1051A00001E3DB2AEFCF14F0156A166A176A14C000
:1051B000DEFF15C0DDFF1A0EDBCFE9FFDB2A1B0E79
:1051C000DBCFEAFF01E3DB2AEFCF14F0156A166AA2
:1051D000176A080E1F0B07E0D890143615361636DE
:1051E0001736E806F9E1D9CFE9FFDACFEAFF145024
:1051F000EE121550ED12D9CFE9FFDACFEAFFEE50EB
:10520000ED1001E159D0D950160FE96EDACFEAFF5F
:10521000EE2A000EEE22EE22EE220001985114E05A
:10522000D950160FE96EDACFEAFFF70EEE5CFF0EEB
:10523000EE58FF0EEE580F0EEE5805E306680768AD
:10524000086809685AD013D0D950160FE96EDACF22
:10525000EAFFF70EEE5CFF0EEE58000EEE58000E61
:10526000EE5805E3066807680868096846D0D95013
:105270000E0FE96EDACFEAFFEE2A000EEE22EE22E2
:10528000EE22C8D6D950060FE96EDACFEAFFEE2A31
:10529000000EEE22EE22EE22D9500A0FE96EDACF8E
:1052A000EAFFEE2A000EEE22EE22EE2270D606680B
:1052B00007680868096821D0160EDBCF9AF0170E30
:1052C000DBCF9BF0180EDBCF9CF0190EDBCF9DF0EF
:1052D000160EDBCF14F0170EDBCF15F0180EDBCF58
:1052E00016F0190EDBCF17F014C006F015C007F04A
:1052F00016C008F017C009F000D01C0EE15C02E2F5
:10530000E16AE552E16EE552E7CFD9FF1200D9CF4D
:10531000E6FFE1CFD9FF0E0EE126040E8CC0DBFFC5
:10532000050E8DC0DBFF060E8EC0DBFF070E8FC0A3
:10533000DBFF0001985115E0D4CE14F0D5CE15F066
:10534000D89015321432D89015321432000E14C091
:10535000DFFF010E15C0DBFF020EDB6A030EDB6A06
:1053600011D0D4CE14F0D5CE15F0D8901532143219
:10537000000E14C0DFFF010E15C0DBFF020EDB6A5A
:10538000030EDB6AFB0EDBCF14F0FC0EDBCF15F057
:10539000FD0EDBCF16F0FE0EDBCF17F014C006F0CB
:1053A00015C007F016C008F017C009F0DFCF0BF0EA
:1053B000010EDBCF0CF0020EDBCF0DF0030EDBCFC6
:1053C0000EF0C9EC3DF0080E06C0DBFF090E07C069
:1053D000DBFF0A0E08C0DBFF0B0E09C0DBFFD95054
:1053E000040FE96EDACFEAFF080EDB50EE26090E55
:1053F000DB50EE220A0EDB50EE220B0EDB50EE22CB
:10540000080EDBCF18F0090EDBCF19F00A0EDBCF48
:105410001AF00B0EDBCF1BF018C006F019C007F016
:105420001AC008F01BC009F0DFCF0BF0010EDBCF74
:105430000CF0020EDBCF0DF0030EDBCF0EF091EC83
:105440003DF002C014F003C015F004C016F005C012
:1054500017F0D950FB0FE96EFF0EDA20EA6E1450F8
:10546000EE5E1550EE5A1650EE5A1750EE5AD950BD
:10547000040FE96EDACFEAFFEECFE6FFEECFE6FFEC
:10548000EECFE6FFEFCFE6FFA3EC36F0E552E552B4
:10549000E552E5520001985101E1A7D0FB0EDBCFA8
:1054A00016F0FC0EDBCF17F0FD0EDBCF18F0FE0E72
:1054B000DBCF19F0020E1F0B07E0D8901636173617
:1054C00018361936E806F9E1000E1624146E060E99
:1054D0001720156E0C0E14C0DBFF0D0E15C0DBFF80
:1054E0000C0EDBCFE9FFDB2A0D0EDBCFEAFF01E379
:1054F000DB2AEFCF14F0040E14C0DBFF050EDB6ACD
:10550000060EDB6A070EDB6A0C0EDBCFE9FFDB2A37
:105510000D0EDBCFEAFF01E3DB2AEFCF14F0156AB3
:10552000166A176A080E1F0B07E0D8901436153656
:1055300016361736E806F9E1D950040FE96EDACFCE
:10554000EAFF1450EE121550EE121650EE121750DC
:10555000EE120C0EDBCFE9FFDB2A0D0EDBCFEAFFEC
:1055600001E3DB2AEFCF14F0156A166A176A100EF2
:105570001F0B07E0D8901436153616361736E80696
:10558000F9E1D950040FE96EDACFEAFF1450EE12B8
:105590001550EE121650EE121750EE120C0EDBCF15
:1055A000E9FFDB2A0D0EDBCFEAFF01E3DB2AEF5038
:1055B0000F0B146E156A166A176A180E1F0B07E098
:1055C000D8901436153616361736E806F9E1D95054
:1055D000040FE96EDACFEAFF1450EE121550EE1206
:1055E0001650EE121750EE125BD0FB0EDBCF16F00A
:1055F000FC0EDBCF17F0FD0EDBCF18F0FE0EDBCF7D
:1056000019F0010E1F0B07E0D89016361736183622
:105610001936E806F9E1000E1624146E060E17205E
:10562000156E0C0E14C0DBFF0D0E15C0DBFF0C0E4B
:10563000DBCFE9FFDB2A0D0EDBCFEAFF01E3DB2A3C
:10564000EFCF14F0040E14C0DBFF050EDB6A060E6C
:10565000DB6A070EDB6A0C0EDBCFE9FFDB2A0D0EDF
:10566000DBCFEAFF01E3DB2AEFCF14F0156A166AFD
:10567000176A080E1F0B07E0D89014361536163639
:105680001736E806F9E1D950040FE96EDACFEAFFE0
:105690001450EE121550EE121650EE121750EE1274
:1056A000040EDBCF14F0050EDBCF15F0060EDBCFBA
:1056B00016F0070EDBCF17F014C006F015C007F088
:1056C00016C008F017C009F00E0EE15C03E200D02E
:1056D000E16AE552E16EE552E7CFD9FF1200D9CF7A
:1056E000E6FFE1CFD9FF110EE126100EDB6A8CC078
:1056F000DFFF010E8DC0DBFF020E8EC0DBFF030E4D
:105700008FC0DBFF0001985115E0D4CE14F0D5CE48
:1057100015F0D89015321432D89015321432070E85
:1057200014C0DBFF080E15C0DBFF090EDB6A0A0E92
:10573000DB6A11D0D4CE14F0D5CE15F0D890153246
:105740001432070E14C0DBFF080E15C0DBFF090E74
:10575000DB6A0A0EDB6AFB0EDBCF14F0FC0EDBCF3C
:1057600015F0FD0EDBCF16F0FE0EDBCF17F014C0E8
:1057700006F015C007F016C008F017C009F0070EB4
:10578000DBCF0BF0080EDBCF0CF0090EDBCF0DF0FA
:105790000A0EDBCF0EF0C9EC3DF00C0E06C0DBFFAD
:1057A0000D0E07C0DBFF0E0E08C0DBFF0F0E09C099
:1057B000DBFFD9CFE9FFDACFEAFF0C0EDB50EE2694
:1057C0000D0EDB50EE220E0EDB50EE220F0EDB50E4
:1057D000EE220C0EDBCF18F00D0EDBCF19F00E0E03
:1057E000DBCF1AF00F0EDBCF1BF018C006F019C08C
:1057F00007F01AC008F01BC009F0070EDBCF0BF052
:10580000080EDBCF0CF0090EDBCF0DF00A0EDBCF5C
:105810000EF091EC3DF002C014F003C015F004C08E
:1058200016F005C017F0D950FB0FE96EFF0EDA2015
:10583000EA6E1450EE5E1550EE5A1650EE5A17509E
:10584000EE5A010EF36E060EF3CFDBFF100EF36E71
:10585000060EDBCFF4FFF350F45C01E32ED1060E0D
:10586000DB500001A21501E113D1100EDB5001E065
:10587000FDD0010EF36E100EF3CFDBFFD9CFE9FFA1
:10588000DACFEAFFEECFE6FFEECFE6FFEECFE6FFA0
:10589000EFCFE6FFA3EC36F0E552E552E552E552D4
:1058A0000001985123E0FB0EDBCF16F0FC0EDBCF9E
:1058B00017F0FD0EDBCF18F0FE0EDBCF19F0020E55
:1058C0001F0B07E0D8901636173618361936E8063B
:1058D000F9E1000E1624146E060E1720156E040E44
:1058E00014C0DBFF050E15C0DBFF22D0FB0EDBCFA3
:1058F00016F0FC0EDBCF17F0FD0EDBCF18F0FE0E1E
:10590000DBCF19F0010E1F0B07E0D89016361736C3
:1059100018361936E806F9E1000E1624146E060E44
:105920001720156E040E14C0DBFF050E15C0DBFF3B
:10593000F70EDBCF14F0F80EDBCF15F0F90EDBCF4E
:1059400016F0FA0EDBCF17F01450E66E040EDBCF24
:10595000E9FFDB2A050EDBCFEAFF01E3DB2AE55294
:10596000E750EF6E146A1568166A176AD950F70F78
:10597000E96EFF0EDA20EA6EEE501416EE501516A0
:10598000EE501616EE501716080ED8901732163233
:1059900015321432E806F9E1040EDBCFE9FFDB2A09
:1059A000050EDBCFEAFF01E3DB2A14C0EFFF0001A5
:1059B00098515CE0146A156A1668176AD950F70F97
:1059C000E96EFF0EDA20EA6EEE501416EE50151650
:1059D000EE501616EE501716100ED89017321632DB
:1059E00015321432E806F9E1040EDBCFE9FFDB2AB9
:1059F000050EDBCFEAFF01E3DB2A14C0EFFF040E44
:105A0000DBCFE9FF050EDBCFEAFFEF50F00BE76ECF
:105A10000B0EE7CFDBFF146A156A166A0F0E176EBE
:105A2000D950F70FE96EFF0EDA20EA6EEE50141629
:105A3000EE501516EE501616EE501716180ED8909A
:105A40001732163215321432E806F9E10B0EDB502C
:105A50001410E66E040EDBCFE9FFDB2A050EDBCF68
:105A6000EAFF01E3DB2AE552E750EF6ED9CFE9FF09
:105A7000DACFEAFFEECFE6FFEECFE6FFEECFE6FFAE
:105A8000EFCFE6FF36EC38F0E552E552E552E5524D
:105A9000D9CFE9FFDACFEAFF00019E51EE269F51F0
:105AA000EE22A051EE22A151EE22060EDBCFF3FF33
:105AB000F39EF346F3CFDBFFC9D6110EE15C02E2A1
