:020000040000fa
:080000000002040000000000f2
:020000040000fa
:100400002fa82000007f22000001880000000000cb
:100410000a00070011000700000020000000e000b3
:100420000200320000000200000000005837020005
:10043000000000000040da000000fe004440a90077
:10044000200a20000000e00003003200000020002d
:10045000a00188004440a8000000060040a123003d
:10046000010020001500370062004000e0804800d5
:10047000910188009001ba0062004000e0804800cd
:10048000910188009002ba0062004000e0804800bc
:100490000002eb006028e10004003a000059eb0084
:1004a0008301e900fdff3e00040037006128e10000
:1004b000010032000082eb00050007009101880076
:1004c0001001ba000200e000e7ff3a00000005005a
:1004d000910188008002780062004000e0804800be
:1004e0003559ba008301e900080032002559ba00e5
:1004f0008301e900050032000400e000f4ff32004f
:1005000015d9ba008301e900f1ff3a0000000600a6
:100510006022b800060220000000d0008180d200d6
:100520000482d2008582d2000000a00002025200a4
:1005300083825a00030031000202420083824a0093
:100540000000a1000603e900f3ff3a0000000600e6
:020000040000fa
:0200000401f009
:04000000ffff0000fe
:020000040000fa
:0200000401f009
:04000400ffff0000fa
:020000040000fa
:0200000401f009
:04000800ffff0000f6
:020000040000fa
:0200000401f009
:04000c007bff000076
:020000040000fa
:0200000401f009
:04001000bdff000030
:020000040000fa
:0200000401f009
:04001400ebff0000fe
:020000040000fa
:0200000401f009
:04001800ffff0000e6
:020000040000fa
:100008004c3a00004c3a00004c3a00004c3a0000d0
:100018004c3a00004c3a00004c3a00004c3a0000c0
:100028004c3a00004c3a00004c3a00004c3a0000b0
:100038004c3a00004c3a00004c3a00004c3a0000a0
:100048004c3a00004c3a00004c3a00004c3a000090
:100058004c3a00004c3a00004c3a00004c3a000080
:100068004c3a00004c3a00004c3a00004c3a000070
:100078004c3a00004c3a00004c3a00004c3a000060
:100088004c3a00004c3a00004c3a00004c3a000050
:10009800983900004c3a00004c3a00004c3a0000f5
:1000a8004c3a00004c3a00004c3a00004c3a000030
:1000b8004c3a00004c3a00004c3a00004c3a000020
:1000c8004c3a00004c3a00004c3a00004c3a000010
:1000d8004c3a00004c3a00004c3a00004c3a000000
:1000e8004c3a00004c3a00004c3a00004c3a0000f0
:1000f8004c3a00004c3a00004c3a00004c3a0000e0
:100108004c3a00004c3a00004c3a00004c3a0000cf
:100118004c3a00004c3a00004c3a00004c3a0000bf
:100128004c3a00004c3a00004c3a00004c3a0000af
:100138004c3a00004c3a00004c3a00004c3a00009f
:100148004c3a00004c3a00004c3a00004c3a00008f
:100158004c3a00004c3a00004c3a00004c3a00007f
:100168004c3a00004c3a00004c3a00004c3a00006f
:100178004c3a00004c3a00004c3a00004c3a00005f
:100188004c3a00004c3a00004c3a00004c3a00004f
:100198004c3a00004c3a00004c3a00004c3a00003f
:1001a8004c3a00004c3a00004c3a00004c3a00002f
:1001b8004c3a00004c3a00004c3a00004c3a00001f
:1001c8004c3a00004c3a00004c3a00004c3a00000f
:1001d8004c3a00004c3a00004c3a00004c3a0000ff
:1001e8004c3a00004c3a00004c3a00004c3a0000ef
:0801f8004c3a00004c3a0000f3
:020000040000fa
:100208004c3a00004c3a00004c3a00004c3a0000ce
:100218004c3a00004c3a00004c3a00004c3a0000be
:100228004c3a00004c3a00004c3a00004c3a0000ae
:100238004c3a00004c3a00004c3a00004c3a00009e
:100248004c3a00004c3a00004c3a00004c3a00008e
:100258004c3a00004c3a00004c3a00004c3a00007e
:100268004c3a00004c3a00004c3a00004c3a00006e
:100278004c3a00004c3a00004c3a00004c3a00005e
:100288004c3a00004c3a00004c3a00004c3a00004e
:10029800983900004c3a00004c3a00004c3a0000f3
:1002a8004c3a00004c3a00004c3a00004c3a00002e
:1002b8004c3a00004c3a00004c3a00004c3a00001e
:1002c8004c3a00004c3a00004c3a00004c3a00000e
:1002d8004c3a00004c3a00004c3a00004c3a0000fe
:1002e8004c3a00004c3a00004c3a00004c3a0000ee
:1002f8004c3a00004c3a00004c3a00004c3a0000de
:100308004c3a00004c3a00004c3a00004c3a0000cd
:100318004c3a00004c3a00004c3a00004c3a0000bd
:100328004c3a00004c3a00004c3a00004c3a0000ad
:100338004c3a00004c3a00004c3a00004c3a00009d
:100348004c3a00004c3a00004c3a00004c3a00008d
:100358004c3a00004c3a00004c3a00004c3a00007d
:100368004c3a00004c3a00004c3a00004c3a00006d
:100378004c3a00004c3a00004c3a00004c3a00005d
:100388004c3a00004c3a00004c3a00004c3a00004d
:100398004c3a00004c3a00004c3a00004c3a00003d
:1003a8004c3a00004c3a00004c3a00004c3a00002d
:1003b8004c3a00004c3a00004c3a00004c3a00001d
:1003c8004c3a00004c3a00004c3a00004c3a00000d
:1003d8004c3a00004c3a00004c3a00004c3a0000fd
:1003e8004c3a00004c3a00004c3a00004c3a0000ed
:0803f8004c3a00004c3a0000f1
:020000040000fa
:100550002a2e00002a000000746500007374000059
:100560002d630000333000002e740000787400000a
:100570000074000065730000742d000063330000f8
:10058000302e00006373000076000000720000004f
:100590007700000061000000722b0000007700006f
:1005a0002b000000612b00000054000048490000af
:1005b0005320000049530000204100002053000058
:1005c000414d0000504c000045200000464900000d
:1005d0004c4500000d0a0000004300007265000059
:1005e0006174000065640000206200007920000052
:1005f0007468000065200000656d00006265000001
:1006000064640000656400002d6300006f640000f6
:10061000652e0000636f00006d2000004d4d00004e
:10062000432000002f20000053440000204600001b
:1006300041540000206400007269000076650000eb
:10064000720d00000a0000005468000065200000e0
:1006500074650000787400002e7400007874000047
:1006600020660000696c000065200000636f0000d8
:10067000756c0000642000006e6f000074200000a4
:1006800062650000207200006561000064210000c6
:040690000000000066
:020000040000fa
:100694001400fa00889fbe0070079800010f9800ac
:1006a4000040eb0010479800130037001e409000f4
:1006b4000080fb007800b900f600400060a0200034
:1006c4000080400010007800614060000004e000f9
:1006d4000c0032001e409000e14f500003003a002d
:1006e4000000eb00100f98005b0237001e409000e2
:1006f4000040e800104798001e409000e14f500071
:10070400eaff36001e4090000084fb001e4090006b
:100714000080fb007800b900e400400060a02000e5
:10072400808140001e4090000080fb007800b900ea
:100734008000780060a02000808440001e4090006b
:100744000080fb007800b900f200400060a02000a7
:10075400808340006b004700e30047000e81e800ff
:100764000003780081027800030278008901780090
:10077400870078007e009000b50907000001be00e4
:100784007840b90080007800c0a0200000804000bc
:100794000288be001e4090000080fb007800b90073
:1007a400e600400060a02000008040001001be0070
:1007b4000080eb008080eb00800f5100818f590096
:1007c400350032000040eb00004f78002f00370066
:1007d4001e80fb007800b900f600400060a02000f5
:1007e4000080400010007800614060000004e000d8
:1007f400250032001e4090009e4f1000220032005f
:100804001e80fb007800b9008000780060a0200002
:10081400008040001001be001e4090000080fb00dc
:100824007800b9008000780060a0200000804000bb
:100834001000be00800f5100818f590012003a0051
:100844001e80fb007800b900e400400060a0200096
:1008540000804000104178001e4090000080fb00a2
:100864007800b900e400400060a02000008040004f
:1008740010407800804f510003003a000000eb0064
:10088400100f9800f40137001e4fe80010c0b300a9
:100894009e4f1000ceff36001e4090000080fb00eb
:1008a4007800b900e600400060a02000008040000d
:1008b4001001be000080eb008080eb00800f51002f
:1008c400818f590008003a000e089000904078008b
:1008d40020c7b30080cf500003003a000000eb00b3
:1008e400100f9800dc0137001e4090000080fb00d0
:1008f4007800b900e600400060a0200000804000bd
:100904001001be000080eb008080eb00800f5100de
:10091400818f5900100032000e089000904078003a
:1009240070c7b30080cf50000b003a007e009000e7
:10093400660707001e4090000080fb007800b900a5
:1009440080007800c0a02000008140000080eb00ff
:100954008080eb000089be001e4090000080fb00f8
:100964007800b900e600400060a02000008040004c
:100974001001be000080eb008080eb00800f51006e
:10098400818f590021003a001e4090000080fb0036
:100994007800b900e400400060a02000808140009d
:1009a4001e4090000080fb007800b90080007800b1
:1009b40060a02000008140001e4090000080fb00e9
:1009c4007800b900e600400060a02000808040006c
:1009d4007e009000190e07000004e00003003a00b6
:1009e4000000eb00100f98009b0137001e409000a0
:1009f4000080fb007800b9008000780080a120000e
:100a0400008140006000b8000089be001e409000d4
:100a14000080fb007800b90080007800c0a12000ad
:100a240080804000110078000000a0008008780059
:100a34001e4090000080fb007800b9008000780020
:100a4400c0a1200080804000110078000050a10067
:100a5400800878001e4090000080fb007800b900f8
:100a640080007800c0a12000808040001100780040
:100a74000060a100800878001e4090000080fb0008
:100a84007800b90080007800c0a120008080400078
:100a9400110078000070a100800878000e08900012
:100aa4009040780020c7b30080cf50006a003a001d
:100ab4000e0890000000e80090407800b0c2b30037
:100ac40080cf50000b0032000e0890000000e800b8
:100ad400104078000004e000220032000e0890006c
:100ae4000080e80090407800b0c2b30080cf50008e
:100af4001c003a001e4090000080fb007800b90002
:100b040080007800c0a1200080804000110078009f
:100b14000010a000800878001e4090000080fb00b8
:100b24007800b90080007800c0a1200080804000d7
:100b3400110078000020a000800878001e4090007a
:100b44000080fb007800b90080007800c0a120007c
:100b540080804000110078000030a10080087800f7
:100b64001b0037001e4090000080fb007800b90095
:100b740080007800c0a1200080804000110078002f
:100b84000010a000800878001e4090000080fb0048
:100b94007800b90080007800c0a120008080400067
:100ba400110078000020a100800878001e40900009
:100bb4000080fb007800b90080007800c0a120000c
:100bc40080804000110078000030a1008008780087
:100bd4001e4090000080fb007800b900800078007f
:100be40000a12000808040000040eb008048780095
:100bf4001e4090000080fb007800b900800078005f
:100c040020a12000808040000000eb0080087800d4
:100c14001e4090000080fb007800b900800078003e
:100c240040a12000008140006000b8000089be009f
:100c34001e4090000080fb007800b900800078001e
:100c4400c0a1200080804000110078000040a10075
:100c540080087800f90037000e0890009040780072
:100c640070c7b30080cf50006a003a000e089000ad
:100c74000000e80090407800b0c2b30080cf50007c
:100c84000b0032000e0890000000e80010407800cd
:100c94000004e000220032000e0890000080e8000a
:100ca40090407800b0c2b30080cf50001c003a00de
:100cb4001e4090000080fb007800b900800078009e
:100cc400c0a1200080804000110078000010a00026
:100cd400800878001e4090000080fb007800b90076
:100ce40080007800c0a120008080400011007800be
:100cf4000020a000800878001e4090000080fb00c7
:100d04007800b90080007800c0a1200080804000f5
:100d1400110078000030a100800878001b00370023
:100d24001e4090000080fb007800b900800078002d
:100d3400c0a1200080804000110078000010a100b4
:100d4400800878001e4090000080fb007800b90005
:100d540080007800c0a1200080804000110078004d
:100d64000020a000800878001e4090000080fb0056
:100d74007800b90080007800c0a120008080400085
:100d8400110078000030a100800878001e40900017
:100d94000080fb007800b9008000780000a12000ea
:100da400808040000040eb00804878001e409000a6
:100db4000080fb007800b9008000780020a12000aa
:100dc400808040000000eb00800878001e40900006
:100dd4000080fb007800b9008000780040a120006a
:100de400008140006000b8000089be001e409000f1
:100df4000080fb007800b90080007800c0a12000ca
:100e040080804000110078000040a1008008780034
:100e14008a0037000e0890009040780010c6b30096
:100e240080cf500085003a000e0890000000e800d2
:100e340090407800b0c2b30080cf50000b00320065
:100e44000e0890000000e800104078000004e00064
:100e5400220032000e0890000080e80090407800e4
:100e6400b0c2b30080cf50001c003a001e40900076
:100e74000080fb007800b90080007800c0a1200049
:100e840080804000110078000010a00080087800e5
:100e94001e4090000080fb007800b90080007800bc
:100ea400c0a1200080804000110078000020a00034
:100eb400800878001e4090000080fb007800b90094
:100ec40080007800c0a120008080400011007800dc
:100ed4000030a000800878001b0037001e409000fe
:100ee4000080fb007800b90080007800c0a12000d9
:100ef40080804000110078000010a1008008780074
:100f04001e4090000080fb007800b900800078004b
:100f1400c0a1200080804000110078000020a000c3
:100f2400800878001e4090000080fb007800b90023
:100f340080007800c0a1200080804000110078006b
:100f44000030a000800878001e4090000080fb0064
:100f54007800b9008000780000a120008080400063
:100f64000040eb00804878001e4090000080fb00a9
:100f74007800b9008000780020a120008080400023
:100f84000000eb00800878001e4090000080fb0009
:100f94007800b9008000780040a120000081400062
:100fa4006000b8000089be001e4090000080fb0075
:100fb4007800b90080007800c0a120008080400043
:100fc400110078000040a100800878001e409000c5
:100fd4000080fb007800b9008000780060a0200049
:100fe40000804000210020006011b8001e000700ae
:100ff4001e4090000080fb007800b900f200400021
:1010040060a02000008040001000be00e00f5000ef
:10101400e08f5800090032001e4090000080fb0061
:101024007800b90080007800c0a1200080804000d2
:10103400110078000040a000800878001e40900055
:101044000080fb007800b9008000780060a02000d8
:1010540080804000110f98001e0890004f04be00cd
:101064000080fa00000006001800fa0070079800db
:10107400020f9800130f9800210f980053cabf0065
:101084008080fb00b05180000088b900010020007e
:1010940010079800210798007e0090003008900007
:1010a400610060000000e00003003a00100020002e
:1010b400300f9800d10137002e0890000000e000a6
:1010c40016003a000e0890009e089000e00f5000b1
:1010d400e08f580003003d0011002000310f9800fc
:1010e400c60137000e0890009e089000e00f5000e3
:1010f400e08f580004003a006000b8003007980000
:1011040041079800580037000e0990009e0990008e
:101114003207980043079800530037002e089000c8
:10112400e10f500027003a007e009000700190000b
:101134008009900032079800430798007e009000d1
:1011440030089000700060000000e00006003200eb
:101154003e009000ce00900061004000e080480016
:1011640030079800410798000e0890009e089000f0
:10117400e00f5000e08f580009003d000e08900079
:101184009e0890003e019000ce01900002004000b5
:1011940083804800300798004107980032003700e8
:1011a4000e0890009e0890003e019000ce01900031
:1011b40002004000838048003007980041079800ef
:1011c400290037002e089000e20f500023003a0057
:1011d4000e0990009e0990001000200001002000dc
:1011e400800f5100818f5900030034001300200048
:1011f400330f9800810137000e0990009e0990007a
:101204001000200001002000800f5100818f590040
:1012140006003a007e00900010099000a00990009a
:1012240032079800430798000f0037007e009000b3
:1012340010099000a00990000e0890009e089000ec
:10124400020040008380480061005000e0805800a4
:10125400300798004107980003003700130020006e
:10126400330f9800650137007e009000100990004c
:10127400a00990003e009000ce009000800f510025
:10128400818f59000300310010002000300f9800b6
:101294005a0137007e00900010099000a0099000c8
:1012a4003e009000ce009000800f5100818f5900c5
:1012b40015003a003e009000ce009000e00f500070
:1012c400e08f58000b0032003e009000ce009000ea
:1012d40061005000e08058003007980041079800f2
:1012e400fe009000310890000040a000b008980073
:1012f40009003700fe009000310890000040a10072
:10130400b008980004003700fe00900031089000f7
:101314000040a100b00898003e009000ce0090006c
:10132400e00f5000e08f580010003a007e0090005b
:10133400690b07007e01900030019800410198007c
:10134400fe0090000040eb00a0489800fe009000d2
:101354000000eb00e00098007e0190006000b800ff
:1013640070019800010998001e0137007e0090006a
:1013740070019000800990003e009000ce00900023
:10138400800f5100818f590003003a000040eb00a8
:10139400004f7800d50037007e0090007001900067
:1013a400800990003e009000ce009000800f510014
:1013b400818f5900640036007e0090007001900017
:1013c400800990003e009000ce0090000001510082
:1013d400818159007e009000600290007e009000a0
:1013e400204890008080fb00b05180000088b90044
:1013f4000000420001002000800f5100818f59003d
:101404004e0031000040eb00004f78003e01900098
:10141400ce01900052079800630798007e00900068
:1014240070019000800990003e009000ce00900072
:10143400000051008180590030079800410798004e
:101444007e0090005e019000ee0190007200980012
:101454000308980014003700b05180006101b800ff
:101464003e009000ce00900002005000838058009f
:1014740030079800410798007e00900020489000b3
:101484000004e000060032007e0090002048900036
:101494008040e9007e009000214898000200370057
:1014a40010c0b300004f7800b05180006101b80053
:1014b4003e009000ce009000800f5100818f5900b3
:1014c400e5ff36007e009000e00090003e009000b2
:1014d400808050007e009000610098007e009000a3
:1014e400e0009000b0518000808f50007f003900f0
:1014f4007e009000e0009000b051800080804000a9
:101504007e009000610098007e00900020489000ca
:101514000004e000060032007e00900020489000a5
:101524008040e9007e009000214898006f00370059
:1015340010c0b300004f78006c00370010c0b30037
:10154400004f7800690037007e0090007001900021
:10155400800990003e009000ce00900002025000ee
:10156400838258007e009000600190007e0090000d
:10157400204890008080fb00b05180000088b900b2
:10158400000041006101b8001e009000ae00900010
:101594000200500083805800800f5200818f5a004f
:1015a400500031000040eb00004f78003e009000f6
:1015b400ce00900050079800610798007e009000cc
:1015c40070019000800990003e009000ce009000d1
:1015d40002005000838058003007980041079800ab
:1015e4007e0090005e019000ee0190007200980071
:1015f4000308980015003700b05180006101b8005d
:101604003e009000ce0090000200500083805800fd
:1016140030079800410798007e009000a048900091
:1016240053cabf0080cf5000060031007e009000f6
:10163400204890008040e8007e00900021489800f7
:101644000200370010c0b300004f7800b051800092
:101654006101b8003e009000ce009000800f510060
:10166400818f5900e4ff36007e009000e000900076
:101674003e009000808040007e0090006100980051
:101684007e009000e0009000b0518000808f5000f8
:10169400160039007e009000e0009000b0518000f8
:1016a400808050007e009000610098007e009000d1
:1016b400a048900053cabf0080cf500006003100fc
:1016c4007e009000204890008040e8007e0090005a
:1016d400214898000500370010c0b300004f78007f
:1016e4000200370010c0b300004f78001e04e00071
:1016f4003c0032007e009000770a07007e019000d3
:101704003001980041019800fe0090000040eb0079
:10171400a04898007e0090003e019000ce01900009
:1017240072009800030898000f0037003e019000f3
:10173400ce0190001e009000ae0090000000510009
:101744008180590030079800410798007e0090007e
:10175400c000900030009000210c07007e01900032
:1017640030019800410198003e019000ce019000a4
:101774001e009000ae009000800f5100818f590030
:10178400eaff31000d003700b05180006101b8005c
:101794003e009000ce00900002005000838058006c
:1017a40030079800410798007e0090002048900080
:1017b4008040e8007e00900021489800b0518000ed
:1017c4006101b8003e009000ce009000800f5100ef
:1017d400818f5900ecff3600be0090007e0090001f
:1017e40061009800fe009000310890000060a100a4
:1017f400b00898008001eb00330f98003e08900079
:101804000080fa00000006000600fa00000f7800cd
:10181400110798001e0078003008900061006000f5
:101824000000e00003003a001000200020079800a8
:101834000a0037009e007800310890000060a10083
:10184400b00898001e0090001001be008000eb005c
:101854001e00780004fe0700200798002e00900068
:101864000080fa00000006000600fa00000f78006d
:101874001e00780030089000610060000000e00065
:1018840005003a0010002000010020001007980015
:1018940021079800120037001e00780030089000dd
:1018a400700060000000e000080032001e007800b4
:1018b400800890007000900061004000e0804800c3
:1018c4001007980021079800050037001e007800d3
:1018d400800890007000900010079800210798007d
:1018e4001e009000ae0090000080fa000000060088
:1018f4000600fa00000f7800110798001e00780017
:1019040030089000610060000000e00003003a002d
:101914001000200020079800060037001e00780001
:10192400d1ff07001e0190000089be000000eb00fb
:10193400200798002e0090000080fa0000000600a6
:101944000200fa00000f78008000eb006011b8007c
:101954001e007800c4fd07009e0078003108900046
:101964000050a100b00898000080fa0000000600b2
:101974000c00fa00889fbe003007980041079800c9
:101984007acabf000004e000030032000080eb00cc
:1019940050079800d00037004e00900030089000a7
:1019a400610060000000e00003003a000081eb00e9
:1019b40052079800c80037004e009000300890008d
:1019c400640060000000e00007003a00ce009000d0
:1019d400310890000050a000b00898008081eb000e
:1019e40053079800bc0037004e0090003008900068
:1019f400680060000000e0001d0032004e0090000e
:101a04007001900080099000120798002307980045
:101a14004e00900030089000700060000000e0006c
:101a2400060032001e009000ae00900061004000ed
:101a3400e080480010079800210798004e009000ad
:101a440010099000a00990001e009000ae009000c4
:101a5400800f5100818f59000500360021002000bd
:101a640012002000030020004e0090007efd0700bd
:101a74004e00900030089000700060000000e0000c
:101a8400480032004e0090008008900070009000e2
:101a940061004000e08048004e0190007001980011
:101aa400010998004e009000600090008000e8005a
:101ab4004e009000610098004e009000e0009000fd
:101ac400b0518000808f500032003900ce00900069
:101ad4000000eb00e00098004e00900020489000c9
:101ae4008040e8004e009000214898004e0090008d
:101af400a048900053cabf0080cf50002500390091
:101b0400ce0090000040eb00a0489800350a070082
:101b140010079800210798001e019000ae01900064
:101b24000080eb008080eb00800f5100818f590012
:101b340008003a00e202a800ce00900031089000ac
:101b44000060a000b00898008081eb005307980063
:101b5400610037004e009000c000900030009000fb
:101b64001e019000ae019000b40b0700f2ff2f009d
:101b7400f3ff20001e009000ae009000af0b0700a2
:101b84004e0090001e019000ae01900032009800bb
:101b940043009800ce009000310890000040a1005e
:101ba400b00898004e009000c000900030009000f3
:101bb40062035000e083580053cabf000081fb0059
:101bc400030020000234b80003b0b9000902780011
:101bd400000242000790b900000242008404780029
:101be4004e009000204890000080fb00010020007f
:101bf40008014000898148007052800081528000b1
:101c040002004000838048001007980021079800d4
:101c1400b2538000c35380001e009000ae009000b9
:101c2400800f5100818f5900030032001e00900084
:101c3400ae009000e11007004e009000600090009c
:101c44008000780000802000008f40003e0090005b
:101c54008040780000c0eb0080c060001e00780067
:101c6400014878004e0090007001900080099000b7
:101c74004e009000a008900010089000800f5100c2
:101c8400818f59000c0039004e009000a00890008c
:101c94001008900061004000e08048004e01900070
:101ca4001009980021099800ce0090003108900096
:101cb4000070a000b00898004e009000b00890009a
:101cc4000140a0003108980010c0b30044eab700f6
:101cd400be019000530798005e0090004f04be00c0
:101ce4000080fa00000006000c00fa00889fbe0085
:101cf400400798004e00900030089000610060009a
:101d04000000e00003003a000080eb005007980058
:101d1400b60037004e00900030089000620060006a
:101d24000000e00007003a00ce0090003108900067
:101d34000050a000b00898008080eb005107980084
:101d4400aa0037004e0090007001900080099000b6
:101d540012079800230798004e0090003008900066
:101d6400700060000000e000060032001e009000d9
:101d7400ae00900061004000e08048001007980029
:101d8400210798004e00900010099000a0099000cf
:101d94001e009000ae009000800f5100818f59000a
:101da40007003e00ce009000310890000060a000c3
:101db400b00898008081eb00530798008b0037002f
:101dc4004e00900030089000700060000000e000b9
:101dd400520032004e009000800890007000900085
:101de40061004000e08048004e01900070019800be
:101df400010998004e009000600090008000e80007
:101e04004e009000610098004e009000e0009000a9
:101e1400b0518000808f50003c003900ce0090000b
:101e24000000eb00e00098004e0090002048900075
:101e34008040e8004e009000214898004e00900039
:101e4400a048900053cabf0080cf50002f00390033
:101e5400ce0090000040eb00a04898004e00900097
:101e6400c0009000300090005d0a07001007980041
:101e74002107980052cabf000004e0000f0032009e
:101e84001e019000ae01900070ff2f00f1ff2000b2
:101e9400800f5100818f590017003600e202a8001c
:101ea400ce009000310890000060a000b0089800b7
:101eb4000080eb00500798004c0037001e01900092
:101ec400ae01900070ff2f0001002000800f510030
:101ed400818f590008003600e202a800ce0090006d
:101ee400310890000060a000b00898008080eb00ea
:101ef400510798003d0037004e0090001e019000ed
:101f0400ae0190003200980043009800ce0090008b
:101f1400310890000040a100b00898004e009000e5
:101f2400c00090003000900062035000e08358002d
:101f340053cabf000081fb00030020000234b80034
:101f440003b0b90009027800000242000790b9000a
:101f540000024200840478004e0090002048900063
:101f64000080fb0001002000080140008981480036
:101f7400705280008152800002004000838048003b
:101f84001007980021079800b2538000c3538000c3
:101f94001e009000ae009000800f5100818f590008
:101fa400030032001e009000ae00900003100700f2
:101fb4004e009000600090008000780000802000b7
:101fc400008f40001e00780090417800634798001d
:101fd400ce009000310890000040a000b0089800a6
:101fe4006e4090000080fb00500798005e00900057
:101ff4004f04be000080fa00000006000a00fa0048
:1020040020079800310798007acabf000004e00056
:10201400030032000080eb004007980019003700ed
:102024002e00900010079800100037001e0090004a
:10203400104078000001fb001e0090000000e80042
:1020440010079800be0090000200780048fe0700c8
:10205400000f78000080eb009e0f100003003a0090
:102064000080eb0040079800060037001e00900037
:10207400104078000004e000ecff3a000000eb00a0
:10208400400798004e0090000080fa00000006000f
:102094000a00fa0020079800310798007acabf00a6
:1020a4000004e000030032000080eb0040079800c9
:1020b400190037002e009000100798001000370018
:1020c4001e009000104078000001fb001e009000ec
:1020d4000000e80010079800be009000020078009d
:1020e40023fe0700000f78000080eb009e0f100015
:1020f40003003a000080eb00400798000600370018
:102104001e009000104078000004e000ecff3a004c
:102114000000eb00400798004e0090000080fa0099
:10212400000006000c00fa00200798003107980010
:10213400420798002e009000100798004e0090006f
:10214400e9fe0700000f7800100037001e00780039
:10215400804078001e009000014878001e00900026
:102164000000e800100798003e0090000000e9001d
:1021740030079800a00020009e0f100009003200d4
:102184004e009000d8fe0700000f78000080eb009e
:102194009e0f1000030032003e009000e10f50003b
:1021a400eaff3c009e0090000040eb00804878006d
:1021b4001e0090000000e800100798000080eb006b
:1021c4009e0f100003003a000000eb005007980037
:1021d400020037002e009000500798005e00900027
:1021e4000080fa00000006001000fa003007980092
:1021f4004107980052079800630798000000eb001d
:10220400000f78007acabf000004e0000300320027
:102214000080eb0070079800240037003e00900017
:10222400100798001c0037000000eb0020079800fe
:10223400110037001e009000104078000081fb0060
:102244001e0090000000e80010079800ee009000c7
:1022540002007800c6fd0700e10f400003003a00c9
:102264001e00780070079800100037002e009000c0
:102274000000e80020079800ae0090004e00900097
:10228400808f5000ebff35001e0fe8005e009000c9
:102294000000e900500798005e0090000000e00094
:1022a400e1ff3a001e007800700798007e0090005d
:1022b4000080fa00000006001200fa0040079800af
:1022c4005107980062079800730798000000eb001c
:1022d400000f78004e009000100798001e00370091
:1022e4000000eb0030079800130037007e009000d8
:1022f4007dfe0700200798002e009000e10f4000ab
:1023040003003a001e007800000f98001700370001
:102314002e009000804078001e0090000148780054
:102324001e0090000000e800100798003e00900096
:102334000000e80030079800be0090005e009000a6
:10234400808f5000e9ff35001e0fe8006e009000fa
:102354000000e900600798006e0090000000e000b3
:10236400dfff3a001e007800000f98000e0890006e
:102374000080fa00000006001200fa00100798001e
:102384007acabf000004e0000300320010002000fd
:1023940020079800ab0037001e0090003008900022
:1023a400610060000000e00003003a00110020001a
:1023b40021079800a300370044cabf000004e000ce
:1023c4000c003200b2538000c35380000080eb0045
:1023d4008080eb00800f5100818f59000300320090
:1023e400b0538000c1538000021007000040eb008e
:1023f40044eab7001e009000b008900000082000d6
:10240400008060000000e0008b0032001e0090009d
:102414001000be00e90e07001e009000404090002e
:102424000080fb004500dd00800078002081200052
:10243400008f40001e0fe8001e0fe8001e8fe8000a
:102444001e0fe8001e0fe8001e0fe8001e0fe80034
:102454001e8fe8001e009000a00890001008900055
:10246400804078001e007800014878001e0fe800c4
:102474001e009000a00890001008900002f02f00a9
:102484000300200000027800810278000200780036
:102494008300780000016200018062006102b800dc
:1024a40034079800450798003e009000ce00900045
:1024b400c000dd00000020003007980041079800ac
:1024c4003e009000ce0090006112b80034079800de
:1024d400450798003e019000ce0190000200700074
:1024e40083807000c809dd004800de0000807100b0
:1024f400c808de00804078001e007800014878009b
:102504001e0fe8001e009000a00890001008900024
:1025140002002000f30f20000002780081027800fe
:1025240002007800830078000001620001806200ec
:102534006102b80054079800650798005e00900097
:10254400ee009000c000dd0000002000500798005d
:10255400610798005e009000ee0090006112b800e0
:1025640054079800650798005e019000ee01900002
:1025740002007000838070004008de00010020002b
:10258400804078001e007800014878001e0fe800a3
:102594001e009000a0089000100890000200200087
:1025a40003f02f0000027800810278000200780016
:1025b4008300780000016200018062006102b800bb
:1025c40074079800050f98007e0090008e08900014
:1025d400c000dd000000200070079800010f980083
:1025e4007e0090008e0890006112b8007407980075
:1025f400050f98007e0190008e0990000200700083
:10260400838070004808de000100200080407800cc
:102614001e007800014878001e0fe8001e0090009c
:102624001000be00730f07009e0090003108900058
:102634000070a100b0089800e202a8008001eb003d
:10264400230798002e0090000080fa000000060086
:102654000400fa00000f78001e0078003008900093
:10266400610060000000e00003003a001000200058
:1026740010079800120037001e0078003eff070084
:102684009e007800310890000000a100b008980076
:10269400e202a90000000000000000000100370071
:1026a40051100700e0c2bf00644060000004e00075
:1026b400fbff3200e202a8000000eb0010079800c4
:1026c4001e0090000080fa00000006003a00fa00a4
:1026d400881f7800101f98000080eb008080eb00ba
:1026e40070079800010f980080cabf000004e00042
:1026f40003003a0010002000201f98002a01370030
:102704007acabf000004e000030032001100200078
:10271400211f9800240137007f004700f70047007d
:10272400020320000e014100c30220008e814100fb
:10273400a70220008e834300280220000e044400d8
:102744000003780081027800020278000701780013
:10275400880078001e189000bd010700301798000b
:10276400411798003e119000ce1190000080eb00bc
:102774008080eb00800f5100818f590004003a00e3
:10278400e202a80012002000221f98000601370070
:102794000040eb0060579800260037006e50900010
:1027a4000080fb007800b900f600400060a0200023
:1027b4000080400010007800614060000004e000e8
:1027c400190032006e5090000080fb007800b900c0
:1027d4008000780060a02000008040001001be004e
:1027e4006e109000fe109000800f5100818f5900f0
:1027f4000d003a006e5090000080fb007800b90094
:10280400e400400060a02000008040009040780078
:102814000e70900080cf500003003a001300200097
:10282400231f9800e00037006e5090000040e8003d
:10283400605798006e509000e14f5000d7ff36006b
:10284400f700470050ceb3008048780060022000b3
:102854000e004000210220008e804000a2022000d1
:102864000e0141007f034700f70347008042eb005d
:102874000002780081017800860078000700780063
:102884001c050700000037000060fe003e109000a9
:10289400ce109000d2070700100f9800210f980067
:1028a4003452800045528000048fbe0052cabf00db
:1028b4000004e00006003200b05180004200de0057
:1028c40001002000500798006107980005003700b8
:1028d400b05180000000d100010020005007980092
:1028e400610798005e019000ee0190001e089000c0
:1028f400ae08900005f707003007980041079800dc
:102904003e009000ce0090001e0f40005e974800ed
:10291400b0538000c1538000be0f1000ae8f18006a
:102924004c003a003e139000ce139000be0090007d
:102934005e009000000ab800be0090006e00900097
:102944000088b9000501780000014100de00900014
:102954004e0090000088b900000141008202780016
:102964000400530085805b003017980041179800dd
:1029740052cabf000004e000220032003e10900062
:10298400ce1090004200dd0080007800008020001e
:102994000080400020079800ae0090000040eb004b
:1029a400804878002e0090000000e800200798007e
:1029b400ae0090000040eb00804878002e009000ac
:1029c4000000e80020079800ae0090000040eb00f3
:1029d400804878002e0090000000e800200798004e
:1029e4002e0190009240780000cfb30000c0600038
:1029f400004978002e0090000000e80020079800ad
:102a0400180037003e109000ce10900000004000e7
:102a1400800078000080200000804000200798009b
:102a2400ae0090000040eb00804878002e0090003b
:102a34000000e80020079800ae0090000040eb0082
:102a4400804878002e0090000000e80020079800dd
:102a5400040037003e109000ce1090006011b800c2
:102a6400f607070052cabf000004e000220032004b
:102a74001e089000ae089000f2ff2f00f3ff200024
:102a84000002780081027800020078008300780058
:102a940000016200018062006102b800341f9800e6
:102aa400451f98003e189000ce189000c000dd002d
:102ab40000002000301f9800411f98003e1890002d
:102ac400ce1890006112b800341f9800451f98007a
:102ad4003e199000ce1990000200700083807000af
:102ae40072ff2f00f3ff2000820f5000838f5800e5
:102af4001f003e00070037001e099000ae09900039
:102b040070ff2f0001002000800f5100818f5900b9
:102b140017003e001e099000ae099000100020002e
:102b240001002000800f5100818f590010003600f1
:102b34001e0a9000ae0a90003417980045179800ba
:102b44003e119000ce1190007e0090008e089000ff
:102b5400800f5100818f59004bff31003e109000cf
:102b6400ce10900070079800010f980046ff3700c0
:102b7400e202a800a2528000b35280007e009000be
:102b84008e089000800f5100818f59000400360098
:102b94007e0190008e099000a2528800b3528800f2
:102ba4008001eb00231f98002e1890004f0478003a
:102bb4000080fa00000006002200fa00881f780056
:102bc400600f9800710f98006000b80060079800cb
:102bd4007107980080cabf000004e00003003a00b7
:102be4001000200000179800640037007acabf0064
:102bf4000004e000030032001000200000179800d9
:102c04005e003700690047008e00e8007a01470043
:102c1400f6014700f40347007004470000037800fe
:102c240081027800020278000701780088007800a9
:102c34006e089000860007006007980071079800ee
:102c44006e019000fe0190000080eb008080eb009c
:102c5400800f5100818f590004003a00e202a8005d
:102c64001000200000179800440037006e01900007
:102c7400fe0190000080eb008080eb00800f51008b
:102c8400818f5900270032000040eb00004f78008c
:102c9400210037001e80fb007800b900f6004000d8
:102ca40060a02000008040001000780061406000b7
:102cb4000004e000170032001e80fb007800b90019
:102cc4008000780060a02000008040001001be0059
:102cd4003e089000ce089000800f5100818f59006b
:102ce4000c003a001e80fb007800b900e4004000ac
:102cf40060a0200000804000904078002e58900092
:102d040080cf500003003a00100020000017980004
:102d14001a0037001e4fe80010c0b3009e4f100089
:102d2400dcff3600690147008e00e8007e08900051
:102d3400e70007000004e000030032001000200058
:102d4400001798000d0037006c004700f0004700a2
:102d540074014700690347008e03e80025c0b300ef
:102d6400000278008101780086007800070078006e
:102d7400e00307000000eb00001798000e1090001d
:102d84004f0478000080fa00000006000200fa00f8
:102d9400000f78009e007800310890000050a100d8
:102da400b00898009e007800310890000060a100ef
:102db400b00898000080fa00000006000400fa0041
:102dc400000f78001e007800b00890000004200076
:102dd400008060000000e0000300320010002000ca
:102de40010079800020037000000eb00100798005d
:102df4001e0090000080fa00000006000400fa00a3
:102e0400000f78001e007800b00890000002200037
:102e1400008060000000e000030032001000200089
:102e240010079800020037000000eb00100798001c
:102e34001e0090000080fa00000006000000fa0066
:102e440080cabf000080fb000080fa00000006007a
:102e54002400fa00100f9800210f9800320f9800f8
:102e6400430f9800540f9800650f9800760f980050
:102e740080cabf000004e00005003a000080eb00b7
:102e84008080eb0000179800111798008c00370021
:102e94006b014700e30047001e0890008c00070008
:102ea40010c0b300004f78000060fe006e004700c1
:102eb400de0b90004e0b90009e42780000027800da
:102ec400ae0990003e099000fe0890006e08900044
:102ed4007b0107000004e00006003a00e202a800bb
:102ee4000080eb008080eb00001798001117980019
:102ef400730037000040eb00004f780010c0b300af
:102f0400104798006e089000104078000004e0001c
:102f140006003a00e202a8000080eb008080eb008b
:102f24000017980011179800650037006e0890008c
:102f340010407800fb4f400002003a000040eb00d4
:102f4400104798000040eb00204798001800370015
:102f54002e4090008080fb0063004700e140780031
:102f6400f0c3b30080cf50000e0032002e4090001a
:102f74000080fb00800078006e0890000080400014
:102f8400104178002e4090008080fb0063004700d1
:102f940061407800804f5100020032000040eb0095
:102fa400104798002e4090000040e8002047980009
:102fb4002e409000e74f5000e5ff36000040eb0044
:102fc40020479800180037002e4090008080fb00b6
:102fd4006b004700e1407800f0c3b30080cf50009d
:102fe4000e0032002e4090000080fb00800078002c
:102ff4007e08900000804000104178002e40900030
:103004008080fb006b00470061407800804f5100d6
:10301400020032000040eb00104798002e40900060
:103024000040e800204798002e409000e24f5000f6
:10303400e5ff36003e089000104078000080fb0059
:103044004300de00610060000004e0000200320082
:103054000040eb00104798003e08900010407800b4
:103064000080fb004400de00610060000004e0001a
:10307400020032000040eb00104798003e08900028
:10308400104078000080fb000000d1006100600067
:103094000004e000020032000040eb0010479800fa
:1030a4001e4090000004e0007fff3200e202a8000e
:1030b4007e0090008e089000001798001117980069
:1030c4000e1090009e1090000080fa000000060090
:1030d4000a00fa0020079800310798004207980078
:1030e4000040eb001047980010c0b3002047980040
:1030f4000040eb00004f78000040eb0030479800a0
:10310400410037002e00900090407800f0c3b300d7
:1031140080cf5000050032002e00900090407800cf
:10312400a0c2b30080cf500002003a0010c0b30028
:10313400104798002e00900090407800a0c2b30081
:1031440080cf500002003a0010c0b300004f780056
:103154002e00900090407800e0c2b30080cf500071
:1031640002003a000040eb00204798001e04e000f3
:103174000d003200be009000f0c3b3008048780018
:103184003e0090000000e800300798002e409000b8
:103194000004e000190032002e0090000000e80056
:1031a40020079800150037002e4090000004e0002e
:1031b4000c0032002e00900010407800804078000f
:1031c4003e009000014878003e0090000000e800b6
:1031d400300798002e0090000000e80020079800b7
:1031e40006003700be00900000c2b300804878009b
:1031f4003e0090000000e800300798003e40900038
:103204000040e800304798003e409000e74f5000ef
:10321400bcff36002e0090000000e8002007980054
:1032240010c0b300204798000040eb00004f780026
:103234000040eb0030479800400037002e0090001b
:1032440090407800f0c3b30080cf500005003200f6
:103254002e00900090407800a0c2b30080cf5000b0
:1032640002003a0010c0b300104798002e009000ee
:1032740090407800a0c2b30080cf500002003a0012
:1032840010c0b300004f78002e009000104078006a
:103294000004e00002003a000040eb0020479800e0
:1032a4001e04e0000d003200ce009000f0c3b30015
:1032b400804878004e0090000000e8004007980025
:1032c4002e4090000004e000190032002e0090000f
:1032d4000000e80020079800150037002e409000f9
:1032e4000004e0000c0032002e0090001040780032
:1032f400804078004e009000014878004e00900015
:103304000000e800400798002e0090000000e8004c
:103314002007980006003700ce00900000c2b300da
:10332400804878004e0090000000e80040079800b4
:103334003e4090000040e800304798003e40900036
:10334400e24f5000bdff36003e0090006800500080
:10335400300798004e00900063005000400798002a
:103364000040eb0030479800240037003e409000b6
:103374000080fb00800078003e0090000080400048
:103384009040780000c6b30080cf5000180036008b
:103394003e4090000080fb00800078003e009000da
:1033a4000080400090407800a0c7b30080cf500058
:1033b4000f003e003e4090000080fb00800078003b
:1033c4003e009000008140003e4090000080fb00e1
:1033d400800078003e00900000804000104078009b
:1033e4008040780000ceb30000c04000004978005f
:1033f4003e4090000040e800304798003e40900076
:10340400e74f5000d9ff36000040eb0030479800ea
:10341400240037003e4090000080fb0080007800cc
:103424004e009000008040009040780000c6b30039
:1034340080cf5000180036003e4090000080fb0012
:10344400800078004e00900000804000904078009a
:10345400a0c7b30080cf50000f003e003e40900054
:103464000080fb00800078004e0090000081400046
:103474003e4090000080fb00800078004e009000e9
:1034840000804000104078008040780000ceb300f7
:1034940000c04000004978003e4090000040e80031
:1034a400304798003e409000e24f5000d9ff36006c
:1034b4001e4090000080fb000080fa00000006001f
:1034c4002000fa00889fbe0050079800610798000a
:1034d40072079800030f9800140f9800455798003e
:1034e400360f9800470f98004e5090000004e000fb
:1034f4002a00320052cabf000004e0001d0032005e
:10350400505280006152800062035000e0835800f2
:1035140053cabf000081fb00030020000234b8003e
:1035240003b0b90009027800000242000790b90014
:1035340000024200840478007052800081528000ae
:10354400080040008980480061005000e080580075
:10355400f05288000153880050528000615280006c
:10356400005088001150880053cabf0004eab70015
:103574000800370050528000615280006100500002
:10358400e0805800f05288000153880010528000f7
:1035940004eab7000080eb0010538800b1518000aa
:1035a40000fe2f0000804000c500de0010538000a4
:1035b400808f5000aa003e00f0528000015380002a
:1035c40061004000e0804800f05288000153880008
:1035d40004cabf000004e00099003a0052cabf00c8
:1035e4000004e0009200320053cabf000040e9002a
:1035f40004eab700005080001150800078040700ee
:1036040010079800210798001e009000ae0090005b
:10361400f2ff2f00f3ff20000002780081027800ff
:1036240002007800830078000001620001806200db
:103634006102b800640f9800750f98006e0890003e
:10364400fe089000c000dd0000002000600f98001c
:10365400710f98006e089000fe0890006112b80087
:10366400640f9800750f98006e099000fe09900091
:10367400020070008380700072ff2f00f3ff2000af
:10368400820f5000838f5800500036005503070006
:1036940010079800210798001e019000ae019000c9
:1036a400f0ff2f00f1ff2000800f5100818f59009f
:1036b40004003a00e202a8008001eb00530f9800d6
:1036c4008801370000508000115080001e019000d6
:1036d400ae019000d9040700f2ff2f00f3ff200091
:1036e4001e009000ae009000d40407001e0290005b
:1036f400ae0290000450880015508800008020001d
:10370400000f78000000eb00300798000700370036
:103714009e0078000040eb00804878001e0fe8000f
:103724003e0090000000e80030079800be009000c2
:10373400f01f2000808f5000f5ff36000040eb00a2
:10374400004f98001b00370000508000115080008b
:1037540062035000e083580053cabf000081fb009d
:10376400030020000234b80003b0b9000902780055
:10377400000242000790b90000024200840478006d
:103784007052800081528000080140008981480005
:103794000e4890000080fb00010020000200400061
:1037a40083804800130b07000e4890000040e80097
:1037b400004f980031a52000914078000e489000f9
:1037c400814f5000e0ff3900040037001e009000d4
:1037d400ae00900000508800115088000050800016
:1037e4001150800062035000e083580053cabf00a8
:1037f4000081fb00030020000234b80003b0b900cc
:1038040009027800000242000790b9000002420059
:1038140084047800705280008152800008004000c7
:1038240089804800f052880001538800070037005f
:10383400e202a8008000eb00510f98002901370034
:1038440004cabf000040e90004eab700f052800057
:1038540001538000d90907000080eb001053880051
:10386400105380000000e8001053880010538000bb
:103874004500dd008000780000802000008f4000bb
:103884001e007800904078005e00900001487800a7
:103894001e0fe8005e0090008000e8001e00780023
:1038a40010407800804878001e0fe8005e00900009
:1038b4008080e8001e00780010407800804878007e
:1038c4001e0fe8005e009000e30040001e00780038
:1038d40010407800804878001e0fe8005e009000d9
:1038e400e40040001e007800104078008048780012
:1038f4001e0fe8005e009000e50040001e00780006
:1039040010407800804878001e0fe8005e009000a8
:10391400e60040001e0078001040780080487800df
:103924001e0fe8005e009000e70040001e007800d3
:1039340010407800804878001e0fe8000040eb003b
:10394400004f9800240037000e4890000080fb00d0
:10395400800078005e009000008040009040780075
:1039640000c6b30080cf5000180036000e48900007
:103974000080fb00800078005e0090000080400022
:1039840090407800a0c7b30080cf50000f003e00e5
:103994000e4890000080fb00800078005e009000dc
:1039a400008140000e4890000080fb0080007800f9
:1039b4005e00900000804000104078008040780055
:1039c40000ceb30000c04000004978000e489000cb
:1039d4000040e800004f98000e489000e74f500068
:1039e400d9ff36001e007800904078006e009000e9
:1039f400014878001e0fe8006e0090008000e80087
:103a04001e00780010407800804878001e0fe800ff
:103a14006e0090008080e8001e007800104078005e
:103a2400804878001e0fe8000040eb00004f98002b
:103a3400240037000e4890000080fb0080007800ce
:103a44006e009000008040009040780000c6b300f3
:103a540080cf5000180036000e4890000080fb0014
:103a6400800078006e009000008040009040780054
:103a7400a0c7b30080cf50000f003e000e48900056
:103a84000080fb00800078006e0090000081400000
:103a94000e4890000080fb00800078006e009000cb
:103aa40000804000104078008040780000ceb300d1
:103ab40000c04000004978000e4890000040e80033
:103ac400004f98000e489000e24f5000d9ff360096
:103ad4001e007800904078007e0090000148780035
:103ae4001e0fe8001e0fe8001e0fe8001e0fe8007e
:103af4001e0fe8001e0fe8001e0fe8001e0fe8006e
:103b04001e0fe80052cabf000004e0001700320094
:103b14001e007800104078000080fb0001002000a7
:103b2400c000dd00000020001e0990000089be00d6
:103b34001e0fe8001e0890001001be001e00780051
:103b4400104078000080fb0001002000c800dd0068
:103b54000000200002004000838048001e099000fd
:103b64000089be001e0fe800050037001e0fe800a4
:103b74001e0fe8001e0990006000b8000089be0016
:103b84001e0fe8001e0fe8001e0fe8001e0fe800dd
:103b94001e0890001001be001e007800104078003e
:103ba4000080fb00010020000200400083804800e8
:103bb4001e0990000089be001e0fe8001e08900038
:103bc4001001be001e007800104078000080fb0049
:103bd40001002000c808dd000080fd00804078005e
:103be4000040eb0002004000838048001e09900062
:103bf4000089be001e0fe8001e0078001040780007
:103c04000080fb00010020000e0990000089be0026
:103c14001e0fe8000e0890001001be001e00780080
:103c2400104078000080fb0001002000c808dd007f
:103c34000080fd00804078000040eb00020040005e
:103c4400838048000e0990000089be001e0fe80022
:103c54000e0890001001be001e007800104078008d
:103c64000080fb0001002000c000dd0000002000f7
:103c740002004000838048000e0990000089be00c5
:103c84001e0fe8000e0890001001be001e00780010
:103c9400104078000080fb0001002000c800dd0017
:103ca4000000200002004000838048000e099000bc
:103cb4000089be001e0fe800f0528000015380000e
:103cc4003e0990000089be001053800080407800b7
:103cd4004e08900001487800e202a800120020007b
:103ce400520f98005e0890004f04be000080fa0056
:103cf400000006000e00fa00100798002107980043
:103d0400320798004307980054079800454f9800dd
:103d1400105380004500dd00800078000080200002
:103d2400008f40001e009000904078001e00780034
:103d3400014878001e0fe8001e0090000000e80013
:103d4400904078001e007800014878001e0fe800bb
:103d54001e0090000080e800904078001e0078006b
:103d6400014878001e0fe8001e0090006300400028
:103d7400904078001e007800014878001e0fe8008b
:103d84001e00900064004000904078001e007800ff
:103d9400014878001e0fe8001e00900065004000f6
:103da400904078001e007800014878001e0fe8005b
:103db4001e00900066004000904078001e007800cd
:103dc400014878001e0fe8001e00900067004000c4
:103dd400904078001e007800014878001e0fe8002b
:103de4002e009000904078001e0078000148780072
:103df4001e0fe8002e0090000000e80090407800bc
:103e04001e007800014878001e0fe8002e00900084
:103e14000080e800904078001e0078000148780097
:103e24001e0fe8003e009000904078001e007800cd
:103e3400014878001e0fe8009e0078000040eb0067
:103e4400804878001e0fe8004e4890000080fb0078
:103e5400610060000004e000050032009e0078006c
:103e64000040eb00804878001e0fe8000100370096
:103e74001e0fe8004e4890000080fb0061006000c7
:103e84000004e000090032009e0078000040eb00ce
:103e9400804878001e0fe8009e0078000040eb0088
:103ea400804878001e0fe800020037001e0fe8006b
:103eb4001e0fe8004e4890000080fb006100600087
:103ec4000004e000090032009e00780010c2b30034
:103ed400804878001e0fe8009e00780080c2b3007e
:103ee400804878001e0fe800020037001e0fe8002b
:103ef4001e0fe8004e4890000080fb000000d10037
:103f0400610060000004e000090032009e007800b7
:103f140010c2b300804878001e0fe8009e007800ad
:103f240080c2b300804878001e0fe800020037000a
:103f34001e0fe8001e0fe8005e0090001000be0097
:103f44004008de0001002000804078001e00780058
:103f5400014878001e0fe8005e0090001000be00cb
:103f64004808de0001002000804078001e00780030
:103f7400014878001e0fe8004e4890000080fb00c6
:103f84004200de00610060000004e000090032002d
:103f94009e0078000040eb00804878001e0fe80087
:103fa4009e0078000040eb00804878001e0fe80077
:103fb400020037001e0fe8001e0fe8004e48900074
:103fc4000080fb004200de00610060000004e000ad
:103fd400090032009e00780010c2b30080487800c7
:103fe4001e0fe8009e00780080c2b300804878006d
:103ff4001e0fe800020037001e0fe8001e0fe80045
:104004005e0090001000be00804078001e00780022
:10401400014878001e0fe8005e0090001000be000a
:104024004809dd004800de0000007100c808de0019
:10403400804078001e007800014878001e0fe800d8
:104044004e0090001000be00804078001e007800f2
:10405400014878001e0fe8004e0090001000be00da
:104064004809dd004800de0000007100c808de00d9
:10407400804078001e007800014878001e0fe80098
:104084004e0090001000be004008de000100200039
:10409400804078001e007800014878001e0fe80078
:1040a4004e0090001000be004808de000100200011
:1040b400804078001e007800014878001e0fe80058
:1040c400f052800001538000ca080700e202a800f1
:1040d4000080fa00000006000c00fa003007980087
:1040e4003e00900030089000610060000000e00095
:1040f40005003a001000200001002000400798004d
:1041040051079800490037003e0090001000be009f
:10411400aa0707003e009000404090000080fb008a
:104124004500dd008000780040812000008f4000c1
:1041340052cabf000004e000190032001e007800db
:10414400104078000080fb0001002000c000dd006a
:104154000000200010079800210798001e0fe800b7
:104164001e007800104078000080fb000100200051
:10417400c801dd00020020001e009000ae00900087
:104184000000410081804900100798002107980031
:104194001e0fe8009e007800648f40000500370081
:1041a4006000b80010079800210798001e007800ee
:1041b400660f40001e007800104078000081fb006c
:1041c400030020001e009000ae009000000041009b
:1041d4008180490010079800210798001e0fe8000d
:1041e4001e007800104078000080fb0001002000d1
:1041f4004809dd00c801de00830171004801dd00cb
:104204001e009000ae009000000041008180490033
:1042140010079800210798001e0fe8001e00900068
:10422400ae00900040079800510798004e0090009f
:10423400de0090000080fa00000006003000fa0062
:10424400881f78003017980041179800521798007b
:104254006317980080cabf000004e00003003a001e
:104264000000eb00701798005a0037006c014700fb
:10427400e40047003e10900095fb07000004e000b6
:10428400030032000000eb00701798005100370063
:10429400540007004e1190000089be004e1090009b
:1042a4001001be000080eb008080eb00800f510005
:1042b400818f590004003a00e202a8000000eb00dc
:1042c4007017980043003700000220000e004000e1
:1042d4007a014700f70047006f044700ee1390008f
:1042e4005e13900015c0b300000278008e017800c0
:1042f4000800780072fc07000004e00016003a0091
:10430400e202a8000000eb007017980031003700ab
:10431400000220000e0040007a014700f700470029
:104324006f044700ee1390005e1390008042eb0090
:10433400000278008e0178000800780060fc070015
:104344000004e00004003a00e202a8000000eb00d0
:10435400701798001f0037006f0047001040780066
:10436400fb4f4000040032006f004700104078000b
:104374000004e000e6ff3a006000b800600f980017
:10438400710f98000040eb00406798007c004700e4
:10439400420220000e014100ec0047006403470084
:1043a40075c0b3004e1290008001780006007800ba
:1043b40050fe07004e1090001000be00f2ff2f00c8
:1043c400f3ff20009d010700e202a8001000200076
:1043d400701798007e1090004f0478000080fa0057
:1043e400000006002400fa00305280004152800090
:1043f400100f9800210f980052cabf000004e0007b
:1044040006003200b05180004200de0001002000ae
:10441400300798004107980005003700b05180002c
:104424000000d100010020003007980041079800e7
:10443400a0528000b15280003e019000ce01900055
:1044440032f0070070079800010f98001e099000d1
:10445400ae0990007e0090008e089000020040009b
:1044640083804800100f9800210f9800fe009000f0
:104474003e009000000ab800fe0090004e0090003c
:104484000088b9000501780000014100be009000d9
:104494000e0890000088b9000001410082027800f3
:1044a4001407980025079800325280004352800078
:1044b4001e089000ae08900002005000838058004f
:1044c40070079800010f9800ab0037000060fe00f1
:1044d4001e089000ae089000b80607000080200077
:1044e400000f78006000b80050079800610798003a
:1044f4008e00370052cabf000004e00054003200ae
:104504001e007800104078000080fb0001002000ad
:10451400300f9800410f98001e0fe8001e0078002d
:10452400104078000080fb00010020004809dd00f5
:10453400c801de00830171004801dd003e089000df
:10454400ce0890000200700083807000300f980045
:10455400410f98001e0fe8001e00780010407800fc
:104564000080fb0001002000c001dd0002002000eb
:104574003e089000ce089000020070008380700016
:10458400300f9800410f98001e0fe8001e007800bd
:10459400104078000080fb0001002000c801dd000d
:1045a400020020003e089000ce0890000200700037
:1045b40083807000300f9800410f98001e0fe800b0
:1045c4003e089000ce089000f2ff2f00f3ff200079
:1045d40000027800810278000200780083007800ed
:1045e40000016200018062006102b80004179800b3
:1045f400151798000e1090009e109000c000dd006a
:104604000000200000179800111798000e10900069
:104614009e1090006112b8000417980015179800b6
:104624000e1190009e1190000200700083807000b3
:10463400300f9800410f98003e089000ce0890007b
:10464400e00f5000e08f580059003200100037008e
:104654001e007800104078000080fb00500f980086
:104664001e0fe8001e007800104078000080fb0058
:10467400c800dd005e08900001007000500f980033
:104684001e0fe8005e0890000000e00048003200c1
:104694001e009000ae00900061004000e0804800e1
:1046a400100798002107980052cabf000004e000d8
:1046b4000c0032001e019000ae01900060ff2f003c
:1046c400f1ff2000800f5100818f59001100360046
:1046d4000082eb008082eb00640f9800750f980055
:1046e4003b0037001e019000ae01900060ff2f00d8
:1046f40001002000800f5100818f59000500360011
:104704000080eb008080eb00600f9800710f980030
:104714002f0037005e009000ee0090006100400022
:10472400e080480050079800610798005e019000ff
:10473400ee0190003e009000ce009000800f5100ea
:10474400818f59006bff39001e089000ae0890005d
:1047540061004000e0804800100f9800210f98008d
:104764007e0090008e08900061004000e0804800c8
:1047740070079800010f9800c0528000d152800049
:1047840061015000e08158007e0090008e08900086
:10479400800f5100818f59004cff3e000081eb00d7
:1047a4008081eb00620f9800730f980008003700b7
:1047b4001e029000ae029000a4528800b5528800f8
:1047c4001e009000ae009000600f9800710f9800da
:1047d4006e089000fe0890000080fa0000000600b9
:1047e4001200fa0070079800010f98003052800000
:1047f40041528000300798004107980052cabf0018
:104804000004e00006003200b05180004200de00e7
:104814000100200050079800610798000500370048
:10482400b05180000000d100010020005007980022
:10483400610798005e019000ee0190007e009000f8
:104844008e08900031ef07001007980021079800a8
:104854003e019000ce0190001e009000ae0090003a
:104864000200400083804800300798004107980008
:104874009e0090005e009000000ab8009e00900028
:104884006e0090000088b900050178000001410025
:10489400de0090002e0090000088b9000001410065
:1048a400820278007e0090008e0890000400500080
:1048b4008580580070079800010f98003e00900012
:1048c400ce009000bd05070052cabf000004e000fe
:1048d4003b0032007e0090004200dd008000780042
:1048e40000802000008f40001e00780010407800f7
:1048f4000080fb0001002000300798004107980069
:104904001e0fe8001e007800104078000080fb00b5
:10491400010020004809dd00c801de0083017100a8
:104924004801dd003e009000ce00900002007000bf
:104934008380700030079800410798001e0fe8003c
:104944001e007800104078000080fb000100200069
:10495400c001dd00020020003e009000ce00900067
:1049640002007000838070003007980041079800af
:104974001e0fe8001e007800104078000080fb0045
:10498400010020006f0160006000b80003002000f7
:104994000200700083807000c801dd000200200066
:1049a4003e009000ce0090000200700083807000f2
:1049b40030079800410798001e0fe8001b003700dd
:1049c4007e009000000040008000780000802000fd
:1049d400008f40001e007800104078000080fb002b
:1049e4000100200030079800410798001e0fe800de
:1049f4001e007800104078000080fb0001002000b9
:104a04004809dd00c801de00830171004801dd00b2
:104a14003e009000ce009000020070008380700081
:104a240030079800410798001e0fe8003e009000f0
:104a3400ce0090000080fa00000006002800fa0072
:104a4400200f9800310f9800420f9800530f9800e0
:104a54000040eb00004f780030528000415280004b
:104a6400000f9800110f980052cabf000004e00024
:104a740006003200b05180004200de000100200038
:104a8400400798005107980005003700b051800096
:104a94000000d10001002000400798005107980051
:104aa4004e019000de0190002e089000be08900098
:104ab40096ee070010079800210798000e09900051
:104ac4009e0990001e009000ae009000020040007d
:104ad40083804800000f9800110f98009e009000fa
:104ae4004e009000000ab8009e0090005e00900006
:104af4000088b9000501780000014100ce00900053
:104b04002e0090000088b900000141008202780064
:104b14002e089000be0890000400500085805800c4
:104b2400200f9800310f980010c0b300404f980038
:104b3400a90037005ccabf00ce4890000140600065
:104b44000004e000990032001e04e00094003a00e2
:104b540010c0b300004f78000e0890009e0890002b
:104b64001605070052cabf000004e0000700320027
:104b74002e0890004200dd008000780000802000b4
:104b84000080400070079800060037002e0890004f
:104b94000000400080007800008020000080400079
:104ba400700798004e089000804078007e009000c6
:104bb400014878007e0090000000e800700798002b
:104bc4004e089000de08900002f02f000300200041
:104bd40000027800810278000200780083007800e7
:104be40000016200018062006102b800640f980055
:104bf400750f98006e089000fe089000c000dd005c
:104c040000002000600f9800710f98006e0890005b
:104c1400fe0890006112b800640f9800750f9800a8
:104c24006e099000fe0990000200700083807000fd
:104c3400c809dd004800de0000807100c808de00fd
:104c4400804078007e009000014878007e0090004b
:104c54000000e8007007980052cabf000004e0009a
:104c64004f0032004e089000de0890000200200041
:104c7400f30f20000002780081027800020078001f
:104c84008300780000016200018062006102b800c4
:104c940004179800151798000e1090009e109000ad
:104ca400c000dd00000020000017980011179800d4
:104cb4000e1090009e1090006112b8000417980026
:104cc400151798000e1190009e11900002007000bc
:104cd400838070004008de000100200080407800de
:104ce4007e009000014878007e0090000000e800fb
:104cf400700798007e0090009040780000cfb300c9
:104d040000c06000604798004e089000de089000e4
:104d14000200200003f020000002780081027800e5
:104d240002007800830078000001620001806200c4
:104d34006102b80024179800351798002e109000cf
:104d4400be109000c000dd00000020002017980075
:104d5400311798002e109000be1090006112b80018
:104d640024179800351798002e119000be1190005a
:104d740002007000838070004808de0001002000fb
:104d8400804078006e40900080c070007e009000eb
:104d9400014878007e0090000000e8007007980049
:104da4000e0890009e08900092050700c2528000f1
:104db400d35280000e0890009e089000000041002d
:104dc40081804900000f9800110f98004e48900010
:104dd40000404000404f98004e489000ef4f500074
:0c4de40054ff36000080fa0000000600ba
:020000040000fa
:104df0002000fa00889fbe008a9fbe0074cabf00d0
:104e00000080fb00700f98007e089000e10f5000ba
:104e100024003200fe089000e28f5000390032007a
:104e20007e0890000000e000010032003d003700e5
:104e3000e202a8000040eb0080eab7000040eb006f
:104e4000405798000c0037004e5090000080fb0047
:104e50007800b90080007800c0a120008080400068
:104e6000110078000000a100800878004e509000ea
:104e70000040e800405798004e509000e14f50002d
:104e8000f1ff3600410407000004e0003b0432005b
:104e900020c3b30081eab70010c0b30074eab700c2
:104ea00036043700390407000004e00003003a002c
:104eb0000040eb0074eab7003004370081cabf003d
:104ec0000004e0002d043a0020c0b30074eab700eb
:104ed00041e2a9004222a9004202a8004282a900a0
:104ee0004262a9004242a90041e2a8000040eb0052
:104ef00080eab700e202a8000040eb0040579800ab
:104f000010003700210407000004e0001b043a00f1
:104f10000040eb0080eab7000040eb0074eab70005
:104f2000160437000040eb0074eab70013043700a2
:104f300000c0eb00130607004e5090000040e80050
:104f4000405798004e509000e94f5000f8ff36004f
:104f5000e202a90000c4b3000a0607000040eb000b
:104f6000080607000040eb00060607000040eb00c3
:104f7000040607000040eb000206070050c9b3001a
:104f80000006070011c0b30010c8b30023060700d5
:104f900000c0eb00fb05070000c0eb00f9050700af
:104fa00000c0eb00f705070000c0eb00f5050700a7
:104fb00000c0eb00f305070000c0eb00f10507009f
:104fc00000c0eb00ef05070000c0eb00ed05070097
:104fd00080c4b300eb0507000040eb00e9050700c3
:104fe0000040eb00e705070010c0b300e50507002f
:104ff000a0cab300e305070070c8b300e1050700cd
:1050000011c0b30000c0eb00040607004057980031
:1050100010c0b30040eab7004e5090000004e0001a
:1050200012003200f1050700f0050700ef05070048
:10503000405798004e5090000080fb006f006000c9
:10504000e10f5000ca033a00e805070040579800f6
:10505000ce509000a0cab30080cf500005003200af
:105060000040eb0040eab700020037000040eb00d0
:1050700040eab700dd050700b0c7b300c10507006f
:105080000040eb00bf0507000040eb00bd05070036
:105090000040eb00bb05070010c0b300b9050700d6
:1050a00000c0eb00b705070011c0b30000c0eb0063
:1050b000da050700cd050700a0cfb30081eab700ed
:1050c0000040eb00405798000000370081cabf0045
:1050d0000004e000a603320070c7b300a905070072
:1050e0000040eb00a70507000040eb00a505070006
:1050f0000040eb00a30507000040eb00a1050700fe
:1051000050c6b3009f0507008040eb0000c8b30005
:10511000c205070040128000405798004e50900092
:105120000080fb004200de00610060000004e0003f
:1051300076003a004e509000e14f5000e3ff3a00f5
:10514000aa05070090c6b3008e05070000c4b3008f
:105150008c0507000040eb008a0507000040eb00cb
:10516000880507000040eb008605070070c7b30004
:10517000840507008040eb0000c8b300a7050700c6
:1051800040128000405798004e5090000080fb0075
:105190004200de00610060000004e0005b003a00b5
:1051a0004e5090000004e000020032008f0507001e
:1051b000c6ff37008d05070040c6b30081eab7007f
:1051c0000040eb00405798002100370081cabf0023
:1051d0000004e00066033200a0c7b30069050700c1
:1051e0000040eb00670507000040eb006505070085
:1051f0000040eb00630507000040eb00610507007d
:10520000d0cfb3005f0507008040eb0000c0eb008b
:1052100082050700405798004012800040579800d0
:105220004e5090000004e000030032000040eb000c
:1052300040579800060037006c050700405798005b
:105240006a0507006905070068050700670507008c
:105250004e5090000004e000dcff3d004e509000f6
:105260000080fb004600de00610060000004e000fa
:105270000300320010c0b30040eab700020037005c
:105280000040eb0040eab7000040eb0040579800b8
:1052900013003700b0c7b3003a0507000040eb0029
:1052a000380507000040eb00360507000040eb0022
:1052b000340507000040eb003205070010c9b300b9
:1052c0003005070011c0b30000c0eb005305070014
:1052d000460507004e5090000040e80040579800f7
:1052e0004e509000e24f5000eaff360041e2a90024
:1052f0004222a8004202a9004282a8004262a800fd
:105300004242a80041e2a8007b0037000040eb00c9
:1053100040eab7000040eb00405798001300370008
:10532000b0c7b300170507000040eb0015050700e4
:105330000040eb00130507000040eb0011050700db
:105340000040eb000f05070010c9b3000d05070072
:1053500011c0b30000c0eb003005070023050700b3
:105360004e5090000040e800405798004e5090008a
:10537000e24f5000eaff3600a0cfb30081eab70049
:105380000040eb00405798001400370010c4b300f1
:10539000fc04070000c4b300fa0407000040eb005f
:1053a000f80407000040eb00f60407000040eb00a3
:1053b000f404070000c0eb00f20407008040eb009b
:1053c00010c8b300150507004057980007050700ef
:1053d00081cabf000004e000e50232004e50900098
:1053e0000080fb000000a200610060000004e000fb
:1053f000e6ff3a0040c6b30081eab7000040eb0088
:10540000405798002700370081cabf000004e00021
:10541000d7023200a0c7b300da0407000040eb0057
:10542000d80407000040eb00d60407000040eb0062
:10543000d40407000040eb00d2040700d0cfb30033
:10544000d00407008040eb0000c0eb00f30407002d
:10545000405798004e5090000004e00003003a00ce
:105460000040eb00405798001100370040128000c8
:10547000405798004e5090000004e00003003200b6
:105480000040eb004057980006003700d7040700a3
:1054900040579800d5040700d4040700d304070040
:1054a000d20407004e5090000004e000d6ff3d00fb
:1054b0004e5090000080fb004600de00610060005e
:1054c0000004e0000300320010c0b30040eab7005f
:1054d000020037000040eb0040eab70041e2a900bb
:1054e0004222a8004202a9004282a8004262a8000b
:1054f0004242a80041e2a800e202a80000c0eb007e
:10550000a0040700e202a90000c5b3009d04070043
:105510000040eb009b0407000040eb0099040700eb
:1055200020c0b300970407000040eb00950407007b
:1055300000c0eb00930407008040eb0000c0eb00cc
:10554000b60407000004e0008902320000202000b9
:10555000b0518800e202a80000c0eb0089040700f7
:10556000e202a9006000b800950207000080200058
:10557000000f7800e11b20001e8f40001e0fe80086
:105580001e00780090407800015f98001e0fe80030
:105590001e007800104078000080fb00100f98007b
:1055a0001e0fe8001e007800104078000080fb000d
:1055b000c800dd001e08900001007000100f980068
:1055c0001e0fe8001e0890004800de00300f980013
:1055d0001e0890004600de00610060000004e0004c
:1055e000030032003e0890000010b000300f980019
:1055f0001e0890004700de00610060000004e0002b
:10560000030032003e0890000020b000300f9800e8
:105610001e089000f043b200505798001e0078001a
:1056200090407800415798001e0fe8004e509000bf
:10563000e44f500003003a000040eb0052eab7008c
:10564000170037004e509000e64f500003003a001c
:105650000040eb0052eab700110037004e509000b6
:10566000eb4f500003003a0010c0b30052eab700fd
:105670000b0037004e509000ec4f500003003a00f2
:1056800010c0b30052eab700050037004e5090003a
:10569000ee4f500036023a000040eb0052eab700ed
:1056a0001e0fe8001e0fe8001e0fe8001e00780025
:1056b000104078000080fb000100200030079800b7
:1056c000410798001e0fe8001e0078001040780087
:1056d0000080fb00010020004809dd00c801de0059
:1056e000830171004801dd003e009000ce00900073
:1056f0000200700083807000300798004107980016
:105700001e0fe8001e007800104078000080fb00ab
:1057100001002000c001dd00020020003e009000da
:10572000ce00900002007000838070003007980067
:10573000410798001e0fe8001e0078001040780016
:105740000080fb0001002000c801dd0002002000f5
:105750003e009000ce009000020070008380700038
:1057600030079800410798001e0fe8001e007800df
:10577000104078000080fb0001002000e05188000c
:10578000f15188001e0fe8001e00780010407800dc
:105790000080fb00010020004809dd00c801de0098
:1057a000830171004801dd00e0518000f15180006b
:1057b0000000710081807100e0518800f151880083
:1057c0001e0fe8001e007800104078000080fb00eb
:1057d00001002000c001dd0002002000e051800037
:1057e000f15180000000710081807100e05188005b
:1057f000f15188001e0fe8001e007800104078006c
:105800000080fb0001002000c801dd000200200034
:10581000e0518000f1518000000071008180710032
:10582000e0518800f15188001e0fe8003e00900012
:10583000ce00900050079800610798005e0090002d
:10584000ee009000de01070000802000000f7800cd
:105850009e0078006b8f40001e007800104078009a
:105860000080fb00b05188001e0fe8001e00780089
:10587000104078000080fb00c800dd00b0518000bf
:1058800000807000b05188001e0fe800b151800008
:1058900000202000808f5000b5013a001e007800e3
:1058a0001040780053eab7001e0fe8000040eb00fc
:1058b0004057980010002000100f98000c0037008f
:1058c0001e0890008040780053cabf0000c06000ee
:1058d0000004e000030032004e5090000040e80059
:1058e000405798001e08900000004000100f9800dc
:1058f0009e089000f00f2000808f5000f0ff3600cf
:105900004e509000e14f500099013a001e0078007f
:10591000104078000080fb00200798001e0fe80070
:105920001e007800104078000080fb00c800dd00f9
:105930002e00900001007000200798001e0fe80064
:105940001e00780090407800214798001e0fe80064
:105950002e409000e44f500085013e002e40900004
:105960000004e000820132001e0078001040780040
:105970000080fb000100200070079800010f9800d4
:105980001e0fe8001e007800104078000080fb0029
:10599000010020004809dd00c801de00830171001c
:1059a0004801dd007e0090008e089000020070002b
:1059b0008380700070079800010f98001e0fe800a8
:1059c0007e0090008e0890004509dd00cb01de00ce
:1059d000830171004501dd00b05180000000e90045
:1059e000010020000202400083824800b051800084
:1059f0006101b8000400be00c5ea0700105288002b
:105a00001e0fe8001e0fe8001e007800104078000e
:105a10008040eb00415f9800e84f400002003200f8
:105a200010c0b300405f98001e0fe800ce589000f1
